:020000040800F2
:10000000D06A0020AD020108CB020108CD02010830
:10001000CF020108D1020108D3020108000000004C
:10002000000000000000000000000000D5020108F0
:10003000D7020108000000005FB50008DB020108DC
:10004000DD020108DD020108DD020108DD02010810
:10005000DD020108DD020108DD020108DD02010800
:10006000DD020108DD020108DD020108DD020108F0
:10007000DD020108DD020108DD020108DD020108E0
:10008000DD020108DD020108DD020108DBA900082C
:10009000DBA80008DD020108DD020108DD0201081D
:1000A000DD020108DD020108DD020108DD020108B0
:1000B00023C5000883620008DD020108DD02010893
:1000C000DD020108DD020108DD0201089F6200086F
:1000D000DD020108DD020108DD020108DD02010880
:1000E000DD020108215F0008DD020108DD020108D0
:1000F000DD020108DD020108DD020108DD02010860
:10010000DD020108DD02010825C70008DD02010843
:10011000DD020108DD020108DD0201084DC500080D
:10012000DD020108DD020108DD020108DD0201082F
:10013000DD020108DD020108DD020108DD0201081F
:10014000DD020108DD020108DD020108DD0201080F
:10015000DD020108DD020108DD020108DD020108FF
:10016000DD020108DD020108DD020108DD020108EF
:10017000DD020108DD020108DD020108DD020108DF
:10018000DD020108DD02010800F002F800F0B2F81B
:100190000AA090E8000C82448344AAF10107DA45E2
:1001A00001D100F0A7F8AFF2090EBAE80F0013F082
:1001B000010F18BFFB1A43F0010318470C59010047
:1001C0002C5901000A444FF0000C10F8013B13F0C9
:1001D000070408BF10F8014B1D1108BF10F8015BA0
:1001E000641E05D010F8016B641E01F8016BF9D193
:1001F00013F0080F1EBF10F8014BAD1C0C1B09D1EA
:100200006D1E58BF01F801CBFAD505E014F8016B5B
:1002100001F8016B6D1EF9D59142D6D370470000ED
:100220000023002400250026103A28BF78C1FBD8FF
:10023000520728BF30C148BF0B6070476E2910F0CD
:100240003382702910F08382662913F04F83652969
:1002500013F04C83672913F049836129AFF30080C1
:1002600003681B0A28BF41F08001692910F0E08172
:10027000642910F0DD81752910F0DA816F2911F001
:10028000DB80782910F04F82E92911F07580E4298C
:1002900011F07280F52911F06F80EF2911F0D880EC
:1002A000F82910F04E820368DB0928BF41F0800175
:1002B000632910F0F687732910F0FB87E32911F00A
:1002C000B581F32911F0BA81002070471FB513F0F2
:1002D00003FB11F00BF904000020002112F03AFD9D
:1002E000401C60600020002112F01EFDE0601FBD78
:1002F00010B510BD11F0F2FB1146FFF7E7FF03F058
:100300003FFE11F019FC03B4FFF7F2FF03BC11F03C
:1003100019FC00000020F749F74A8B8DC3F34033E6
:100320000BB140F000408B8DC3F3C03313B140F4E8
:10033000806004E00B69012B01DB40F400708B8DC1
:10034000C3F380330BB140F08040CB6AC3F340432A
:100350001BB9CB6AC3F3405323B140F0100040F007
:10036000200005E00B7F03F080030BB140F4005048
:1003700091F8203003F0100333B191F82C30C3F31F
:10038000C0030BB140F4804091F8203003F08003AB
:100390000BB140F400400B8C03F480730BB140F4BC
:1003A00080300B8C03F400730BB140F400300B8CE5
:1003B00003F400630BB140F400200B8C03F4806362
:1003C0000BB140F4802091F8283003F002030BB108
:1003D00040F08070CB6AC3F3004333B1CB68002B8D
:1003E00001DD402300E080231843536F022B07D127
:1003F00091F83C3003F0010363B140F0010009E0E3
:10040000536F032B06D191F83C3003F001030BB975
:1004100040F00100936F022B07D191F83C30C3F3F9
:10042000800363B140F0020009E0936F032B06D113
:1004300091F83C30C3F380030BB940F00200D2F8CE
:10044000A430012B01D140F48010D2F8A830012B48
:1004500001D140F4001070470FB42DE9F04798B077
:10046000A54D21A81790BDF88000ADF8000001202F
:100470008DF8040050208DF805000DF106044FF0B2
:100480000009BDF8800040F26442811A90426ED0AB
:100490000BDC02286CD081286BD0B0F5836F16D0AE
:1004A000A0F2444000287DD108E002297BD01D291C
:1004B0007AD0BE295ED0C729F5D125E001208DF87C
:1004C000020000208DF803004FF0060920E11620FD
:1004D0008DF8020000208DF803009DF8040040F024
:1004E00080008DF804004FF01C0901202080288C2A
:1004F0006080686A60600020A060A86AE060E86AC6
:100500002061288EA08203E124208DF802000020C3
:100510008DF803009DF8040040F080008DF8040081
:100520004FF02A09012020807448B0F85C006080F8
:100530007348D0F8E80060607148D0F8EC00A06023
:100540006F48D0F8F000E0606D48D0F8F40020610A
:100550006B48D0F8100160616948D0F8AC00A06128
:100560000020A0830021E18321846184D0E04BE05E
:10057000B5E07DE024208DF8020000208DF8030016
:100580009DF8040040F080008DF804004FF02A0927
:100590000120208035F8400F401C6080E8696060D1
:1005A000686A02E0A3E030E02DE0A060A88DA081A1
:1005B000686D403DC4F80E0098204059C4F8120000
:1005C0004D48B0F8D800E0824B48B0F8DC006083BA
:1005D0004948D0F8E0006FF00041884202D1002085
:1005E000208307E04448D0F8E0004FF4167190FBF8
:1005F000F1F020830020A083002104F11C00E1839E
:100600002184618484E000BF00BF3A4890F82C0048
:10061000C0F3C01020B13748006B322800DD77E00E
:100620000E208DF8020000208DF803009DF80400D4
:1006300040F080008DF804004FF014090120208064
:100640002E48C06D022805D12D48D0F8B000C4F85E
:10065000020003E027480068C4F80200254800892A
:10066000E08000202081FFF755FEC4F80A004FE02B
:10067000179850F804AB1790179850F8048B179000
:10068000179880C81790B8F5004F24D044208DF8F3
:10069000020000208DF803009DF8040040F0800067
:1006A0008DF80400A4F800A0A4F80280002603E05E
:1006B0000021201D8155761C402EF9DB002604E028
:1006C00017F8011B201D8155761C387808B1402E83
:1006D000F6DB4FF04A090B48C0F8008018E0002014
:1006E0008DF802008DF803004FF0060910E0BDF808
:1006F000801009E098070020885A0020785B0020CD
:100700008406002038000020F4A004F03DFE00BF65
:1007100000BF00201790B9F1000F03D0494668468A
:1007200005F06EFC18B0BDE8F0075DF814FB2DE98C
:10073000F04FA9B0F64CF74DDFF8DC93F74800888E
:100740001190F648007900F07F00089012AFBE1DAE
:10075000DFF8C88308F106080020F870012038711E
:10076000089878710020079040F246421198811A4B
:10077000904201F02E826BDC40F21142A0EB0201AC
:10078000904201F0328132DC40F21122A0EB0201F2
:10079000904201F0CD8013DC12286ED007DC0228D5
:1007A0006CD005286BD0112841F0C18603E11428D4
:1007B00070D015286FD0B0F5047FF5D101F091B855
:1007C000B1F5FC7F01F0DD8008DC022901F04A80F0
:1007D000032901F060801229E6D1E8E0A1F2F911C5
:1007E000002901F0D1800629DED101F0DEB81829F8
:1007F00001F00C8117DC062901F0608309DC022975
:1008000001F01681032901F01C810529CCD101F0EA
:1008100045BB122901F02C81132901F03B811529D8
:10082000C2D101F095B8302901F05D8109DC292998
:1008300001F0B0812A2901F0B6812F29B4D101F04D
:1008400045B9322901F069813429ADD101F0BCB933
:10085000712901F0658433DC4A297DD01CDC0D2927
:1008600001F046820CDC022901F0D0810A2901F056
:1008700028820B2998D101F029BAA4E0B0E04AE01F
:10088000112901F08D821F2901F0E68224298BD1E4
:1008900001F02EBB40E2FDE36D2901F0008408DC8D
:1008A0004C297DD06A2901F0DA836B2985D101F0CA
:1008B000E5BB6E2901F0F98370298DD101F007BCE9
:1008C000DA296ED016DCAD2901F0668408DC7329C4
:1008D00068D0A02901F08385A12985D101F060BDF0
:1008E000AE2901F03F84AF2901F04584B8298DD1AC
:1008F00001F0CFBCA1F1DB000A2881F01886DFE807
:1009000010F04307160E0304160E160E730690061B
:10091000160E6F0DE70D062038805420B870387918
:1009200040F08000387154227D49304610F055F96E
:100930007C48B0F84400A6F850007BA0007886F808
:10094000420079A041784320815577A0C1784420A6
:10095000815575A0017900E03DE04520815575A0E5
:100960000079202801D1302001E072A000794621D1
:10097000885570A04179472081556EA001784820A4
:1009800081556CA04178492081556AA081784A2020
:10099000815500214B20815501200790022002E063
:1009A00016E0F4E322E06649086001F0C1BD402092
:1009B00064494860F9E7E86A20F080008030E86226
:1009C00000202863F1E7E86A20F08000E862ECE7A5
:1009D00000202863E9E740F28140FFF73DFDE4E7AE
:1009E00004205749086000200790DEE7B8F80200AD
:1009F00011901198B0F5966F6BD013DC40F226423F
:100A0000A0EB0201904265D007DCA0F21340D8B100
:100A1000032825D010285ED14AE0142931D01A29A4
:100A2000F9D138E0B0F5A06F56D005DCA0F2B340A4
:100A300080B30328EFD189E0B0F5A46F4DD0A0F2C8
:100A400029500028E7D106E100203F4988613E484F
:100A5000A168C161216901624AF6552141624FE1F5
:100A60003948216A8162616AC162A16A0163E16AEF
:100A7000416300218163216BC1634AF65521016402
:100A80003EE13148616C4164616C81644AF65521F4
:100A9000C16435E185E02C48216D0165616D4165DA
:100AA000A16C8165A16DC1654AF65521016627E1FA
:100AB0002548616F4166A16F8166E16FC166D4F818
:100AC00080100167D4F8841041674AF65521816788
:100AD00016E15DE070E012E17CE0E5E00D0A556EA4
:100AE00068616E646C656420415054206E6F746957
:100AF0006669636174696F6E2C2041505420636F86
:100B00006D6D616E64203D2025303458000000007A
:100B1000885A002098070020A05D00207400002063
:100B200018020020F45B002031323A34363A343671
:100B3000000000004665622031312032303137003C
:100B4000E05B0020785B0020705C0020FE48B0F87D
:100B50007E10FE48C167FC48D0F88010FB48C0F802
:100B60008010F948D0F88410F848C0F88410F6488E
:100B7000B0F88810F548C0F88810F348B0F88A102B
:100B8000F248C0F88C104AF65521C0F89010B7E032
:100B9000EE48E16DC0F89C104AF65521C0F8A0104F
:100BA000AEE0E948B0F87C10E848C0F894104AF686
:100BB0005521C0F89810A3E0E448D4F88810C0F894
:100BC000C810D4F88C10C0F8CC104AF65521C0F8E3
:100BD000D01095E0DE480168DC48C0F8DC10DC4845
:100BE0004168DA48C0F8E010D9488168D748C0F8B1
:100BF000E410D748C168D548C0F8E810D448016966
:100C0000D248C0F8EC10D2480169D048C0F8EC10C6
:100C1000CF488169CD48C0F8F410CD48C169CB48B0
:100C2000C0F8F810CA48016AC848C0F8FC10C848A3
:100C3000416AC648C0F80011C548816AC348C0F877
:100C40000411C348C16AC148C0F808114AF65521C9
:100C5000C0F80C1154E0BC48D0F8E810BB48C0F80C
:100C60001411B948D0F8EC10B848C0F81811B648BB
:100C7000D0F8F010B548C0F81C11B348D0F80411F2
:100C8000B248C0F82011B048D0F81011AF48C0F8F1
:100C90002411AD48D0F8AC10AC48C0F828114AF681
:100CA0005521C0F82C112BE0A848216CC0F8A410E5
:100CB000E16DC0F8A810616EC0F8AC10E16EC0F82C
:100CC000B010D4F89410C0F8B410982001599F487F
:100CD000C0F8B8109F48D0F8D8109C48C0F8BC1095
:100CE0009C48B0F8E40081B29848A0F8C210994836
:100CF000B0F8E00081B29548A0F8C01000E000BF55
:100D000000BF9548406C9149C8604AF6552008617B
:100D100003209249486448E6D8F800000690D8F8C5
:100D200004000590D8F808000490D8F80C0003904F
:100D3000D8F810000290D8F81400019006983528D1
:100D400071D024DC20286FD010DC0D286DD006DC9B
:100D500002286BD004286AD00C2869D140E10F2802
:100D600067D0102871D01128F7D12CE131286FD02D
:100D700006DC21286BD02F284BD03028EDD159E04C
:100D8000322874D033287CD03428E6D187E03D283F
:100D90006CD009DCA0F13600072849D2DFE800F06A
:100DA000939DA7B2BEE9FD00B0F5C87F73D006DC05
:100DB0003E2871D03F2870D04028CED1E8E0A0F284
:100DC000132000286AD0A0F2FD1010B18028C4D1F1
:100DD00064E1D8F804A0C5F800A05B492868486021
:100DE0000121812006F03EFB574840685649486281
:100DF0000846406AC9F808000121892006F032FB44
:100E000051484168C0F8B0100121912006F02AFB3A
:100E10004AE1D8F804104C48C0F804110121A72079
:100E200006F020FB40E144E006E1DDE0E0E0CDE05B
:100E300039E1E6E04448008840F480704249088087
:100E40000121802006F00EFB2EE1B9E000E0EBE08E
:100E50003D4800884FF6FF6108403B49088001216A
:100E6000802006F0FFFA1FE101E00AE09EE0D8F8DA
:100E700004003549C1F8E8000121A02006F0F2FA8B
:100E800012E1D8F804103048C0F8EC100121A1207C
:100E900006F0E8FA08E1EBE08DE074E0D2E0D8F883
:100EA00004102948C0F8F0100121A22006F0DAFA57
:100EB000FAE0D8F804102448C0F8F4100121A32067
:100EC00006F0D0FAF0E0D8F804101F48C0F800117E
:100ED0000121A52006F0C6FAE6E0D8F804101A4869
:100EE000C0F810110121AA2006F0BCFADCE0164877
:100EF000008840F40070144908800121802006F029
:100F0000B1FAD1E0104800884FF6FF5108400E4971
:100F100008800121802006F0A5FAC5E0D8F8040079
:100F20000949C1F8AC000121902006F09BFA00218C
:100F30000548C0F8B0100121912006F093FA012174
:100F4000112006F08FFA0BE084060020705C002070
:100F500008000020885A0020F45B0020785B002005
:100F6000FA48D0F8B000019000204FF0804148626C
:100F70009AE00021F548C0F8B0100121912006F058
:100F800071FA91E009E007F0C0FAF149C8658BE019
:100F900007F01EFBEE49C86586E00121112006F02E
:100FA00061FAEA48D0F8B00001907DE0012100200C
:100FB00006F058FA78E00121282006F053FA73E091
:100FC00006F00CFC70E007F0CAFC6DE0D8F80810E1
:100FD000DE48C0F8D4100121D52006F043FA63E0C2
:100FE000D8F80400E0625FE0D8F80400A0625BE09B
:100FF000D8F80400D749086005F0B4FC0020079039
:1010000052E0D8F80410D348C0F8D4104AF655215D
:10101000C0F8D81005F0A6FCCE48D0F8D400C4F82B
:101020009000002007903FE0CBA348F6BA020021D1
:101030008120FFF711FA37E0059881B2C348A0F884
:10104000E01031E0D8F80400012801D1C4F8AC0068
:10105000D8F80400022802D10120C4F8B000D8F862
:10106000040020B90020C4F8AC00C4F8B0001BE0B4
:10107000642004F095FD72B6BC48006820F480003E
:10108000BA4908600846006820F400100860B848B3
:10109000B84900E00AE0086003F022FD40F2814018
:1010A000FFF7DAF900E000BF00BF7EE416203870D9
:1010B000002078702820B870387940F080003871AE
:1010C0000121112006F0CEF90121002006F0CAF915
:1010D0000121282006F0C6F99C48D0F8B000306005
:1010E0009A48408870609948D0F80801B0600BF0C9
:1010F0002EF9F060002030617061B061F061306203
:1011000070620120079050E4B8F802009A49086123
:10111000B8F806004861B8F804008860B8F808001C
:10112000C86008460069132877D2DFE800F00A1388
:101130001A314776767676765D647E97B4DBF9F77A
:10114000F600012003F049FE00208C4948628C48DB
:10115000086032E1012003F040FE8A4887490860B8
:101160002BE1012003F039FE022083498861002031
:10117000086208468068012802D18049086102E0BF
:1011800002207E49086180487C49086015E182E2BE
:10119000012003F022FE04207749886100200862C4
:1011A00008468068012802D17449086102E00220E3
:1011B00072490861754871490860FEE0012003F03A
:1011C0000CFE08206C49886100200862084680688F
:1011D000012802D16949086102E0022067490861DB
:1011E0006B4866490860E8E0022003F0F6FD6948B4
:1011F00062498860E1E0022003F0EFFD01205F49D1
:10120000486220205C4908620020886108468068A6
:10121000012803D15949486103E0CDE00220574934
:1012200048615D4855498860C7E0022003F0D5FD5C
:1012300001205249486280204F490862002088619D
:1012400008468068012802D14C49486102E002202A
:101250004A494861514849498860AEE0022003F09C
:10126000BCFD45488068012805D14D484D4988623C
:101270000120486204E04C484A49886200204862E4
:1012800048480BF00FF90AF0DAFF002045490862E0
:101290000120C86291E0022003F09FFD41480069EF
:1012A00040490860084640694042486008468069F5
:1012B000886031488068012804D13948886201205B
:1012C000486204E03848374988620020486235485F
:1012D0000BF0E8F80AF0B3FF002032490862012061
:1012E000C8626AE0022003F078FD23488068012884
:1012F00005D12B482B4988620120486204E02A4826
:10130000284988620020486226480BF0CBF80AF092
:1013100096FF01202349C8624FE00FE007E0FFE796
:10132000022003F05AFD21481449886045E002205C
:1013300003F053FD1E48114988603EE0022003F08F
:101340004CFD1C480D49886037E0000084060020F1
:10135000785B0020705C00204D6F746F72204F76B8
:10136000657263757272656E7400000030380240F9
:10137000EFBEADDEF01F002008000020D4020020E8
:10138000EBB7000853B80008BBB8000857BA00080C
:10139000C7BB000813B80008E9BC0008F1BD00088D
:1013A000C1C100089C020020D1C10008AFC00008E4
:1013B0006FC00008EBBF000800BF00BFFE484069D7
:1013C000132876D2DFE800F00A131A3046757575D7
:1013D00075755C637D96B3DAF8FFF500012003F0C4
:1013E000CAFCF648F649486000208862FAE001200D
:1013F00003F0C1FCF348F2494860F3E0012003F038
:10140000BAFC0220EC49C861002048620846C06866
:10141000012802D1EA49886102E00220E849886196
:10142000E948E7494860DDE0012003F0A4FC04201E
:10143000E149C861002048620846C068012802D11D
:10144000DF49886102E00220DD498861DF48DC492C
:101450004860C7E0012003F08EFC0820D649C8612F
:10146000002048620846C068012802D1D44988613A
:1014700002E00220D2498861D548D1494860B1E0F4
:10148000022003F078FCD348CD49C860AAE00220CE
:1014900003F071FC0120CA4988622020C6494862D5
:1014A0000020C8610846C068012803D1C449C8614A
:1014B00003E096E00220C249C861C748C049C8603D
:1014C00090E0022003F057FC0120BD498862802093
:1014D000B94948620020C8610846C068012802D1A5
:1014E000B749C86102E00220B549C861BB48B449A8
:1014F000C86077E0022003F03EFCAF48C0680128D6
:1015000005D1B748B74988620120486204E0B6486F
:10151000B449886200204862B2480AF0C3FF0AF06A
:101520008EFE0020AF4908620120C8625AE0022006
:1015300003F021FCAB480069AA49086008464069ED
:10154000404248600846806988609B48C06801281E
:1015500004D1A34888620120486204E0A248A1495E
:101560008862002048629F480AF09CFF0AF067FEEC
:1015700000209C4908620120C86233E0022003F089
:10158000FAFB8D48C068012805D1954895498862C5
:101590000120486204E09448924988620020486231
:1015A00090480AF07FFF0AF04AFE01208D49C86288
:1015B00018E00FE007E0FFE7022003F0DCFB8B48B8
:1015C0007F49C8600EE0022003F0D5FB88487C49C3
:1015D000C86007E0022003F0CEFB86487849C86067
:1015E00000E000BF00BF60E5D8F802007D49086058
:1015F000D8F806004860D8F80A008860D8F81A00C1
:10160000C860D8F80E000861D8F812004861D8F810
:1016100016008861D8F81A00C861D8F81E00086260
:1016200043E54FF4A56038602E20B870387940F05B
:10163000800038710120B61C26F8020C6948006849
:10164000306068484068706066488068B06065488F
:10165000C068B0616348006AF06162480069C8F818
:101660000E0060484069C8F812005E488069C8F8FA
:1016700016005C48C069C8F8160000203084B61E09
:10168000002106F12200B184F18431857185B18594
:101690000120079009E5B8F80200401E2064D8F840
:1016A0000400E065D8F808006066B8F80C00E06651
:1016B000D8F80E00C4F89400D8F812109820015100
:1016C0004D48D4F89410C0F8C010982001594A48E9
:1016D000C0F8C4107F21E06D90FBF1F047494867E6
:1016E0004548D0F8D8000E904348D0F8E0100D914E
:1016F000D0F8E4000C90B8F816003F49C1F8D800C3
:10170000B8F8180050B9B8F81A0038B941F270703A
:10171000C1F8E0000220C1F8E40014E0B8F81A00B3
:101720003549C1F8E400B8F8180020B96FF000405E
:10173000C1F8E00007E0B8F818004FF4167148430C
:101740002D49C1F8E0002C48D0F8D8100E988142FD
:101750000BD12948D0F8E0100D98814205D12648D8
:10176000D0F8E4100C98814201D0012000E0002064
:101770000B900B9838B10020214948661E49D1F8DA
:10178000D80007F00DF990E440F222503860242090
:10179000B870387940F0800038710120308034F81A
:1017A000400F401C7080E0697060606AB060A08D7E
:1017B000B081114826E0000008000020EBB70008C7
:1017C000D402002075B800089BB900080FBB0008C0
:1017D00071BC000831B800084FBD000847BE0008C2
:1017E000E1C100089C020020F1C10008ABBF000865
:1017F0006BBF000807BF0008885A0020840600203D
:10180000785B0020B0F8D800F082606D403CC6F8EC
:101810000E0098200059C6F81200F748B0F8E4000E
:101820007083F548B0F8E0003083F348D0F8E0006A
:101830006FF00041884202D10020308307E0EE487B
:10184000D0F8E0004FF4167190FBF1F030830020E7
:10185000B083002106F11C00F183318471840120E2
:10186000079022E4E548807800F0010018B10120DB
:10187000C4F8AC0002E00020C4F8AC00DF48807877
:1018800000F0020018B10120C4F8B00002E000200E
:10189000C4F8B00009E440F2152038600120B870A7
:1018A000A88DC0F3403008B1012000E00220F8709C
:1018B000D4F8AC00012804D1F87840F00100F870A9
:1018C00001E00020F870D4F8B000012804D1F878C5
:1018D00040F00200F87001E00020F870012007904D
:1018E00011E4C648C078012812D1E86A20F480408B
:1018F000E862E86A20F008000830E862E86A20F44C
:10190000005000F50050E862002007F046FC0EE0B1
:10191000E86A20F00800E862E86A20F40030E86233
:10192000E86A20F40050E862012007F036FC5AE62D
:1019300040F2122038600120B870A88DC0F340300A
:1019400008B1012000E00220F870012007904AE66B
:10195000B8F8040044F8880FB8F8020060602188E5
:1019600008B206F017F8A188883C08B206F07BF9A7
:1019700005F034FF05F024FF0121D52005F072FDAC
:1019800031E6D8F802A02EE640F20B40386006207F
:10199000B870387940F08000387101203080D5F877
:1019A00000A0C6F802A007901DE6D8F802A0C5F86E
:1019B00000A09349286848600121812005F052FD6C
:1019C0008F4840688E4948620846406AC9F8080056
:1019D0000121892005F046FD89484168C0F8B01012
:1019E0000121912005F03EFDFDE540F212403860F6
:1019F0000620B870387940F08000387101203080BE
:101A0000D5F800A0C6F802A00790ECE540F22A4005
:101A100038600620B870387940F0800038710120B5
:101A20003080FEF777FCC6F8020001200790DAE567
:101A3000D8F80600A060A068E060D8F80A0020612D
:101A4000D1E540F2154038600E20B870387940F08A
:101A500080003871012030800020C6F80200A068A4
:101A6000C6F806002069C6F80A0001200790BAE50A
:101A7000B8F802006067B8F80400A067D8F806005C
:101A8000E067D8F80A00C4F88000B8F80E00C4F87F
:101A90008400A8E540F2254038601020B8703879FD
:101AA00040F0800038710120308034F8740F70806D
:101AB000A088B080A068C6F80600E068C6F80A00F2
:101AC000208A743CF081012007908CE5D8F806004C
:101AD000A064B8F802002065B8F804006065D8F882
:101AE0000A00A0657FE540F2424038600E20B870E1
:101AF000387940F08000387101203080B4F850000F
:101B00007080B4F85400B080A06CC6F80600A06DD8
:101B1000C6F80A000120079065E53A48006E0128E2
:101B200004D102203749086605F006FFE86AC0F3D1
:101B3000404000B157E50620C9F804004FF080404E
:101B4000C9F808000020C9F80C004AF28700E064D8
:101B5000C9F81000A06CC9F81400206DC9F81C0069
:101B60000020C9F81800C9F8200001202861E86A9F
:101B700020F4003000F50030E862E86A20F400103C
:101B8000E862E86A20F040004030E862A06CC9F8E2
:101B9000140028E5D8F802006064606C002801DABF
:101BA000002060641FE540F23C4038600620B870B9
:101BB000387940F08000387101203080606CC6F8C0
:101BC0000200012007900EE5D8F802000E490860D7
:101BD00009E540F2474038600620B870387940F097
:101BE000800038710120308007480068C6F8020084
:101BF00001200790F7E40000885A002074000020BC
:101C000084060020785B002000000020E86AC0F312
:101C1000405018B1E86AC0F3404038B9E86AC0F3F0
:101C2000404020B1D9F82000022800D1DBE4D5F8EB
:101C300000A0F748007940F0800018B1D8F8020001
:101C4000824402E0F348006882440021504607F0D5
:101C50005FFB8346BBF1010F00D1FFE1E86A20F48E
:101C6000003000F50030E862E86A20F40010E86215
:101C7000E86A20F00200E8620120C9F80400C9F80F
:101C800008A0D9F808002968884201DA606C00E0F1
:101C90000020C9F80C00A068C9F810002069C9F834
:101CA0001400A069C9F81800E069C9F82000E86AC2
:101CB00020F010001030E862D749C86D06F051FDE1
:101CC000CCE1D8F80200D3494860C7E140F2524065
:101CD00038600620B870387940F0800038710120F3
:101CE0003080CC484068C6F8020001200790B5E17A
:101CF000E86AC0F3405018B1E86AC0F3404038B910
:101D0000E86AC0F3404020B1D9F82000022800D191
:101D1000A4E1BF48007940F0800010B1D8F802A0DB
:101D200002E0BC48D0F804A00021504607F0F0FAC9
:101D30008346BBF1010F00D1FAE3E86A20F40030DA
:101D400000F50030E862E86A20F40010E862E86A12
:101D500020F00200E8620120C9F80400C9F808A0D8
:101D6000D9F808002968884201DA606C00E0002098
:101D7000C9F80C00A068C9F810002069C9F814005F
:101D8000A069C9F81800E069C9F82000E86A20F0E5
:101D900010001030E862A049C86D06F032FCC7E3BD
:101DA000E86AC0F3405018B1E86AC0F3404038B95F
:101DB000E86AC0F3404020B1D9F82000022800D1E1
:101DC000B6E32069C9F81400D9F814001090002077
:101DD000109907F09DFA8346BBF1010F00D1A7E3EC
:101DE000E86A20F4003000F50030E862E86A20F488
:101DF0000010E862E86A20F00200E8622069C9F891
:101E000014000120C9F80400C9F808A00020C9F88E
:101E10000C00A068C9F810002069C9F81400A06976
:101E2000C9F81800E069C9F82000E86A20F010003D
:101E3000E8627748C078012804D17749C86D06F078
:101E40002CFD08E0D9F814004042C9F8140072498A
:101E5000C86D06F022FD6BE36D48C078012802D101
:101E600005F014FC01E005F011FCE86A20F0100018
:101E7000E862E86A20F020002030E8620520C9F816
:101E8000040028690D2802D12869286101E000209A
:101E90002861002061498862C86249E3B8F80200FD
:101EA0002062D8F804006062D8F80C00A062D8F86C
:101EB0001000E062B8F81400206339E34FF4836047
:101EC00038601620B870387940F0800038710120F1
:101ED0003080208C7080606A70600020B060A06AE2
:101EE000F060E06A3061208EB082012007901FE32D
:101EF000E86AC0F3405018B1E86AC0F3404038B90E
:101F0000E86AC0F3404020B1D9F82000022800D18F
:101F10000EE3E86A20F4003000F50030E862E86A79
:101F200020F40010E862E86A20F4803000F5803088
:101F3000E862E86A20F00200E8620120C9F80400C3
:101F40000020C9F80C00A06AC9F81000E06AC9F8BE
:101F50001400A069C9F81800E069C9F82000206AD7
:101F6000012836D1E06AC9F81400D9F8140010909D
:101F70002748C078012812D10020109907F0C8F92D
:101F80008346BBF1010F04D1E86A20F40030E86217
:101F9000CEE22148C16D032006F032F914E010981A
:101FA000404210900020109907F0B2F98346BBF12F
:101FB000010F04D1E86A20F40030E862B8E2164864
:101FC000C16D052006F01CF9E86A20F01000E862F7
:101FD00044E00F48C078012822D12868616A08448B
:101FE000C9F80800D9F808A00021504607F090F978
:101FF0008346BBF1010F04D1E86A20F40030E862A7
:1020000096E20548C16D042006F0FAF821E00000D0
:102010007400002000000020785B002008000020F1
:102020002868616A401AC9F80800D9F808A0002198
:10203000504607F06DF98346BBF1010F04D1E86A01
:1020400020F40030E86273E2FE48C16D062006F01D
:10205000D7F8E86A20F010001030E86268E2D8F89B
:102060000400F94908670846006F0F900F98C117E0
:1020700000EBD1514912F44A516759E240F2B240A3
:1020800038601A20B870387940F08000387101202B
:102090003080ED48006F70600120079048E2B8F88A
:1020A0000200E949A1F87C0042E240F2B540386004
:1020B0000420B870387940F08000387101203080F9
:1020C000E148B0F87C0070800120079030E2DE48E3
:1020D000B0F87E000A90B8F80200DB49A1F87E0053
:1020E0000846B0F87E100A98814203D00320D649F2
:1020F000C1F89C00B8F80200D349A1F87E00D8F8D6
:102100000400C1F88000D8F80800C1F88400B8F8CD
:102110000C00A1F88800B8F80E00A1F88A0007E2C8
:102120004FF4976038601020B870387940F0800024
:10213000387101203080C448B0F87E007080C248F9
:10214000D0F880007060C048D0F88400B060BE480D
:10215000B0F88800B081BC48B0F88A00F081012056
:102160000790E5E1B8F80200B7490884012188200A
:1021700005F078F9DCE140F2F64038600420B870F0
:10218000387940F08000387101203080AE48008CF2
:10219000708001200790CBE10020AC49886143F6B4
:1021A000A321AA48C161AA4901624AF655214162A8
:1021B00002218162A749C16241F652510163A649D9
:1021C0004163002181630221C1634AF65521016404
:1021D000A049416481644AF65521C1640221016528
:1021E000012141659D4981654FF44821C1654AF649
:1021F000552101660221416681660021C1660167A1
:10220000012141674AF6552181678F48B0F87E1059
:102210008E48C1678C48D0F880108C48C0F8801078
:102220008948D0F884108948C0F884108648B0F8EE
:1022300088108648C0F888108348B0F88A10834810
:10224000C0F88C104AF65521C0F890107E48016FF6
:102250007E48C0F89C104AF65521C0F8A0107A4874
:10226000B0F87C107948C0F894104AF65521C0F8AF
:1022700098101E21C0F8C8100521C0F8CC104AF6ED
:102280005521C0F8D01076487049486004F06AFBC8
:102290004EE174488078202804D16C49C860002041
:1022A00028647CE06F488078212804D16749C860A1
:1022B0000020286473E06B488078222804D16349A9
:1022C000C860002028646AE066488078302804D11D
:1022D0005E49C8600020286461E062488078312847
:1022E00004D15A49C8600020286458E05D488078CD
:1022F000322804D15549C860002028644FE059486D
:102300008078402804D15149C8600020286446E004
:1023100054488078412804D14C49C8600020286482
:102320003DE050488078422804D14849C8600020E8
:10233000286434E04B488078502804D14349C86071
:10234000012028642BE047488078512804D13F4978
:10235000C8600120286422E042488078702804D1B7
:102360003A49C8600120286419E03E488078712805
:1023700004D13649C8600020286410E039488078CC
:10238000752804D13149C8600020286407E0354829
:102390008078722803D12D49C86000202864C7E0E6
:1023A0004FF49D6038601420B870387940F0800098
:1023B00038710120B61C26F8020CE06D3060206EEA
:1023C0007060606EB060A06EF060B61EE06E08B126
:1023D000022000E00120708201200790A8E0A7E021
:1023E000B8F802001749C8651749D8F80400C1F8C1
:1023F000E8000121A02005F035F81348D8F80810AE
:10240000C0F8EC100121A12005F02CF80E48D8F8F6
:102410000C10C0F8F0100121A22005F023F80A48A2
:10242000D8F81010C0F804110121A72005F01AF8FF
:102430000548D8F81410C0F810110121AA2005F0A1
:1024400011F811E0785B002084060020705C002009
:10245000C0445E045515020060222F02FC7A4F0131
:1024600005000100740000200121FE48C0F80011A1
:10247000A52004F0F7FFFB48D0F8AC000F90012135
:10248000902004F0EFFFF848C06D022814D1F54801
:10249000008840F40070F34908800121802004F096
:1024A000E1FFF048008840F48070EE490880012187
:1024B000802004F0D7FF0AE0EA4800884FF6FF6169
:1024C0000840E84908800121802004F0CBFF2FE07C
:1024D00040F22B5038602420B870387940F08000EA
:1024E000387101203080E048B0F85C007080DD4831
:1024F000D0F8E8007060DB48D0F8EC00B060D94854
:10250000D0F8F000F060D748D0F804013061D54829
:10251000D0F810017061D348D0F8AC00B061002051
:10252000B083B083B083B0830120079000E000BF88
:1025300000BF079870B19DF84C0000F0800018B102
:102540009DF84A00801D00E00620099012A8099914
:1025500003F056FD29B0BDE8F08F10B50446032CFA
:102560000AD106F0DBFAC148C149486004F0FAF923
:1025700006F0B7FB022402E00220BB49486410BD0C
:1025800010B5044672B6012C04D0022C06D0032CE0
:102590000CD107E0002006F039FE07E0012006F02C
:1025A00035FE03E0012006F031FE00BF00BFAE485B
:1025B000048062B610BD70B5AE4EB01FC08885B243
:1025C000012D06D0052D0BD0072D03D00D2D08D1E0
:1025D00005E007E074882046FFF7D2FF02E001E043
:1025E00000E000BF00BF70BD10B501460020002311
:1025F000A04CA41FA2780F2A24D2DFE802F02308FF
:10260000230D231023122318231E23200A00082041
:1026100019E01E200A8016E00C200A8013E0122028
:1026200011E004200A80904C24884C800BE00620A6
:1026300000230A80C1F8023005E0082003E00620EC
:102640000A8000E000BF00BF10BD8B480021884A0F
:102650009161103050F8082C8549CA6102680A62FD
:102660004AF655224A6202698A624269CA628269EE
:102670000A63C2694A6300228A63026ACA634AF62D
:1026800055220A64426B4A64426B8A644AF65522B8
:10269000CA64026C0A65426C4A65826B8A65826C08
:1026A000CA654AF655220A66426E4A66826E8A6694
:1026B000C26ECA66026F0A67426F4A674AF65522BF
:1026C0008A67C26CC1F89C204AF65522C1F8A02046
:1026D000026BC1F8A420C26CC1F8A820426DC1F8F9
:1026E000AC20C26DC1F8B0206349D1F8C020604968
:1026F000C1F8B4206049D1F8C4205D49C1F8B820C0
:102700005D49D1F8D8205A49C1F8BC205A49B1F8DE
:10271000E4108AB25649A1F8C2205749B1F8E01036
:102720008AB25349A1F8C0204AF65522C1F8C42004
:102730004C49B1F87C204E49C1F894204AF6552204
:10274000C1F89820826FC1F8C820C26F1038C1F854
:10275000CC204AF65522C1F8D02048490A6844499D
:10276000C1F8DC2045494A684149C1F8E0204349A5
:102770008A683F49C1F8E4204049CA683C49C1F829
:10278000E8203E490A693A49C1F8EC203B490A6908
:102790003749C1F8EC2039498A693549C1F8F42034
:1027A0003649CA693249C1F8F82034490A6A3049C1
:1027B000C1F8FC2031494A6A2D49C1F800212F494E
:1027C0008A6A2B49C1F804212C49CA6A2849C1F8F0
:1027D00008214AF65522C1F80C21704710B5264C45
:1027E0002348406A4AF65521884205D12048C069ED
:1027F000A0601F48006A20611D48006C4AF6552100
:1028000088420ED11A48806A20621948C06A606204
:102810001748006BA0621648406BE0621448C06B1A
:1028200020631348C06C4AF65521884205D11048F0
:10283000406C60640E48806C60640D48006E4AF61F
:10284000552188420BD10A48006D20650848406D2B
:1028500060650748806DA0640548C06DA0650448A8
:102860000EE0000084060020785B002005000100D7
:10287000705C00207A000020885A002008000020A8
:10288000D0F80C014AF65521884230D1F848D0F8EA
:10289000DC00F8490860F648D0F8E0004860F448E9
:1028A000D0F8E4008860F248D0F8E800C860F0484A
:1028B000D0F8EC000861EE48D0F8EC000861EC4874
:1028C000D0F8F4008861EA48D0F8F800C861E84818
:1028D000D0F8FC000862E648D0F800014862E448FD
:1028E000D0F804018862E248D0F80801C862E048E4
:1028F000D0F8C4004AF6552188423FD1DC48D0F8D0
:10290000A4002064DA48D0F8A800E065DA49E06D58
:102910000969884202DDD8480069E065D448D0F8EA
:10292000AC006066D248D0F8B000E066D048D0F87D
:10293000B410D248C0F8C010CD48D0F8B810CF4875
:10294000C0F8C410CA48D0F8A8007F2190FBF1F06D
:10295000CB494867C648D0F8BC00C849C1F8D80080
:10296000C348B0F8C200C1F8E400C148B0F8C000E4
:10297000C1F8E000D1F8D80006F012F8BF48D0F84E
:10298000D800002804DBBD48D0F8D800642807DD53
:102990000A20BA49C1F8D800D1F8D80006F000F8EA
:1029A000B648D0F8E000B749884205DCB348D0F813
:1029B000E000B0F5167F04DA41F27070AF49C1F85B
:1029C000E000AE48D0F8E400002804DBAB48D0F8C3
:1029D000D800642803DD0220A849C1F8E400A44817
:1029E000006C4AF65521884202D1A148C06A606253
:1029F0009F48D0F82C014AF65521884226D19C48A0
:102A0000D0F814019E49C1F8E8009948D0F818118F
:102A10009B48C0F8EC109648D0F81C119848C0F8B4
:102A2000F0109348D0F820119548C0F80411904850
:102A3000D0F824119248C0F810118D48D0F82C011C
:102A40009149C86501218E48C0F8001110BD70B5CC
:102A50008A4C00234FF498721946854803F0D8FE3B
:102A600006468348406A4AF65521884205D1804887
:102A7000C069A0607E48006A20617D48006C4AF60B
:102A8000552188420ED17A48806A20627848C06A0F
:102A900060627748006BA0627548406BE0627448E2
:102AA000C06B20637248C06C4AF65521884205D13C
:102AB0006F48406C60646E48806C60646C48006E67
:102AC0004AF6552188420BD16948006D2065684857
:102AD000406D60656648806DA0646548C06DA06506
:102AE0006348806F4AF65521884210D16048406E95
:102AF00060675F48806EA0675D48C06EE0675C48B5
:102B0000006FC4F880005A48406FC4F884005848E9
:102B1000D0F890004AF65521884219D15448B0F8AF
:102B20007C005749A1F87E005148D0F88000C1F8D8
:102B300080004F48D0F88400C1F884004C48B0F8B9
:102B40008800A1F888004A48B0F88C00A1F88A00F3
:102B50004748D0F8A0004AF65521884203D144489E
:102B6000D0F89C00E0654248D0F898004AF655211C
:102B7000884203D101204249A1F87C003C48D0F8AA
:102B8000D0004AF65521884209D13948D0F8C8000A
:102B9000C4F888003648D0F8CC00C4F88C0034481B
:102BA000D0F8D8004AF65521884204D13048D0F8F0
:102BB000D400C4F890002E48D0F80C014AF65521F4
:102BC000884230D12A48D0F8DC002A4908602848D9
:102BD000D0F8E00048602648D0F8E4008860244837
:102BE000D0F8E800C8602248D0F8EC00086120481E
:102BF000D0F8EC0008611E48D0F8F40088611C4849
:102C0000D0F8F800C8611A48D0F8FC0008621848EB
:102C1000D0F8000148621648D0F8040188621448D0
:102C2000D0F80801C862124800694AF65521884266
:102C300001D10F48C56815A116480DF08BFF0C484F
:102C4000D0F82C014AF6552188420FD10848D0F817
:102C50001001022807D10648C068722806D001205A
:102C60000949C86502E001200749C86570BD000038
:102C7000705C002008000020DC070020885A00203B
:102C80008406002000650400785B00204B5354311B
:102C9000303100001C02002070B50446FE48006878
:102CA00005287BD2DFE800F00308155E6E0014B93A
:102CB0000120F949086071E0F8A002F065FBFFF718
:102CC000C4FC02F095FEFA4908800220F24908602F
:102CD00064E01CB10020F049086042E002F088FE88
:102CE0000546F3480188284602F07EFEB0F5FA6FEB
:102CF00037DD012006F0E9F805F010FF012002F0B1
:102D00004FFF4AF65520EB49086103F02BFE0220E5
:102D100002F046FF05F0E5FF022002F041FFE6A0C9
:102D200002F032FB0220FDF797FB0320E549086023
:102D30000220E54948610846C06A20F01000C862D8
:102D40000846C06A20F02000C8620520DD494860BE
:102D5000DD48C06A20F08000DB49C8620320CE490C
:102D600008601BE002F044FE0546D1480188284671
:102D700002F03AFE40F6B831884202DD0420C6492E
:102D800008600BE04FF40030D04908604001086053
:102D90004FF4FA7002F004FF01F0A2FE00BFBE483B
:102DA000006870BD10B52DED048B0446412C7DD01C
:102DB00011DC302C7BD007DC202C79D0212C78D072
:102DC000222C41F05F80C6E2312C73D0322C72D0BD
:102DD000402CF6D1FEE3702C00F03F8707DC422C3C
:102DE0006AD0502C69D0512CEBD100F0ADBE722CC2
:102DF00005D0732C7DD0752CE3D100F0C1BFB44851
:102E00000068B4490860B24840684860B0488068CB
:102E10008860AF48C068C860AD4800690861AC48C8
:102E200040694861AA4880698861A948C069C86149
:102E3000A748006A0862A648406A4862A448806AB7
:102E40008862A348C06AC862A148006B0863A048B2
:102E5000406B48639E48806B88639D48C06BC86325
:102E60009B48006C08649A48406C48649848806CA1
:102E700088649748C06CC8649548006D086594489C
:102E8000406D4865924890ED190A084680ED190A90
:102E90008F4890ED1A0AB8EE400A084680ED1A0AEB
:102EA00090ED1A0ABCEEC00A8B4807E0FEE3C9E2C7
:102EB00063E1D9E152E3CAE3F9E3F9E380ED2B0AD8
:102EC000012086490864834800694863084690EDFC
:102ED0000D0AB8EEC00A10EE101A084610F084FC75
:102EE00041EC190B9FED7E0B53EC102B10F02EF8DC
:102EF00000E053E041EC180B0FF04EFF7749886675
:102F0000744840684861734890ED010AB8EEC00A01
:102F1000D0ED190A80EE201A084680ED061A6C489A
:102F2000C06E6C49C8660846C06E6B49C1F8E800BF
:102F30006748006F674908670846016F6648C0F830
:102F4000EC106348406F634948670846416F624828
:102F5000C0F8F0105E48806F5E4988670846816F50
:102F60005D48C0F8F4105A48816F5B48C0F80411FE
:102F700001205849C8670846C16F5748C0F800117A
:102F80005348D0F880005349C1F880000846D0F873
:102F900080105148C0F8101100F074BF524800680A
:102FA0004C4908605048406848604F4880688860D5
:102FB0004D48C068C8604C48006908614A4840698B
:102FC00048614948806988614748C069C861464886
:102FD000006A08624448406A48624348806A8862DE
:102FE0004148C06AC8624048006B08633E48406B75
:102FF00048633D48806B88633B48C06BC8633A4870
:10300000006C08643848406C48643748806C8864B9
:103010003548C06CC8643448006D08653248406D5E
:103020004865314890ED190A084680ED190A2E4886
:1030300090ED1A0AB8EE400A084680ED1A0A90EDA3
:103040001A0ABCEEC00A244880ED2B0A012023494D
:103050000864204800694863084690ED0D0AB8EE00
:10306000C00A10EE101A084610F0BEFB41EC190B16
:103070009FED1B0B53EC102B0FF068FF41EC180B6E
:103080000FF08AFE15498866124840684861114869
:1030900090ED010A2AE00000400000200D0A506F68
:1030A000776572696E6720646F776E2E2E2E000032
:1030B0003C000020705C0020676F6F646279650DD2
:1030C0000A000000A05D00209807002018080240B8
:1030D000383E0108DC07002084060020F45B002055
:1030E000BA498C1BE3329141BC3E0108B8EEC00ADC
:1030F000D0ED190A80EE201A084680ED061AFE4827
:10310000C06EFE49C8660846C06EFD49C1F8E800B9
:10311000F948006FF94908670846016FF848C0F898
:10312000EC10F548406FF54948670846416FF44890
:10313000C0F8F010F048806FF04988670846816F4A
:10314000EF48C0F8F410EC48816FED48C0F8041166
:103150000120EA49C8670846C16FE948C0F8001174
:10316000E548D0F88000E549C1F880000846D0F86D
:103170008010E348C0F810110EE7E2480068DF490C
:103180000860E04840684860DE4880688860DD4844
:10319000C068C860DB4800690861DA484069486176
:1031A000D84880698861D748C069C861D548006A35
:1031B0000862D448406A4862D248806A8862D1482E
:1031C000C06AC862CF48006B0863CE48406B486352
:1031D000CC48806B8863CB48C06BC863C948006C1F
:1031E0000864C848406C4864C648806C8864C54818
:1031F000C06CC864C348006D0865C248406D48652E
:10320000C04890ED190A084680ED190A0120BE4910
:103210000864BA4800694863084690ED0D0AB8EEA4
:10322000C00A10EE101A084610F0DEFA41EC190B35
:103230009FEDB60B53EC102B0FF088FE41EC180BF2
:103240000FF0AAFDB0498866AC4840684861AB48B9
:1032500090ED010AB8EEC00AD0ED190A80EE201AEE
:10326000084680ED061A97E6AA480068A349086058
:10327000A84840684860A74880688860A548C0683A
:10328000C860A44800690861A24840694861A14833
:10329000806988619F48C069C8619E48006A086269
:1032A0009C48406A48629B48806A88629948C06A24
:1032B000C8629848006B08639648406B486395481D
:1032C000806B88639348C06BC8639248006C086445
:1032D0009048406C48648F48806C88648D48C06C0E
:1032E000C8648C48006D08658A48406D4865894807
:1032F00090ED190A084680ED190A012082490864F8
:103300007E4800694863084690ED0D0AB8EEC00A91
:1033100010EE101A084610F067FA41EC190B9FEDF9
:103320007B0B53EC102B0FF011FE41EC180B0FF040
:1033300033FD754988667148406848616F4890ED73
:10334000010AB8EEC00AD0ED190A80EE201A08462C
:1033500080ED061A20E670480068684908606E48EB
:10336000406848606C48806888606B48C068C86086
:103370006948006908616848406948616648806931
:1033800088616548C069C8616348006A086262482C
:10339000406A48626048806A88625F48C06AC86262
:1033A0005D48006B08635C48406B48635A48806B1B
:1033B00088635948C06BC8635748006C0864564816
:1033C000406C48645448806C88645348C06CC8643E
:1033D0005148006D08655048406D48654E4890ED75
:1033E000190A084680ED190A012047490864434834
:1033F00000694863084690ED0D0AB8EEC00A10EE69
:10340000101A084610F0F0F941EC190B9FED3F0B34
:1034100053EC102B0FF09AFD41EC180B0FF0BCFC95
:1034200039498866354840684861344890ED010A5A
:10343000B8EEC00AD0ED190A80EE201A084680EDD9
:10344000061AA9E5354800682C49086033484068E9
:1034500048603248806888603048C068C8602F483B
:10346000006908612D48406948612C48806988617D
:103470002A48C069C8612948006A08622748406A2A
:1034800048622648806A88622448C06AC862234825
:10349000006B08632148406B48632048806B886359
:1034A0001E48C06BC8631D48006C08641B48406C14
:1034B00048641A48806C88641848C06CC86417480F
:1034C000006D08651548406D4865144890ED190A6F
:1034D000084680ED190A01200B4908640748006975
:1034E0004863084690ED0D0AB8EEC00A10EE101AB7
:1034F000084610F079F913E0BC3E0108DC07002013
:1035000084060020F0380108F45B0020EC51B81E5E
:1035100085E7B74158390108C0390108283A010840
:1035200041EC190B9FEDFE0B53EC102B0FF00EFD31
:1035300041EC180B0FF030FCFB498866FB484068F3
:103540004861FA4890ED010AB8EEC00AD0ED190AB8
:1035500080EE201A084680ED061A1DE5F448006842
:10356000F2490860F24840684860F1488068886025
:10357000EF48C068C860EE4800690861EC484069DF
:103580004861EB4880698861E948C069C861E848DA
:10359000006A0862E648406A4862E548806A8862D4
:1035A000E348C06AC862E248006B0863E048406BC9
:1035B0004863DF48806B8863DD48C06BC863DC48C4
:1035C000006C0864DA48406C4864D948806C8864B0
:1035D000D74800E0B6E0C06CC864D548006D086507
:1035E000D348406D4865D24890ED190A084680EDF1
:1035F000190A0120CC490864CC4800694863084690
:1036000090ED0D0AB8EEC00A10EE101A084610F040
:10361000EBF841EC190B9FEDC20B53EC102B0FF0A4
:1036200095FC41EC180B0FF0B7FBBF498866BF480B
:1036300040684861BD4890ED010AB8EEC00AD0ED7F
:10364000190A80EE201A084680ED061AA4E4B9484B
:103650000068B6490860B74840684860B548806867
:103660008860B448C068C860B24800690861B14861
:1036700040694861AF4880698861AE48C069C861E7
:10368000AC48006A0862AB48406A4862A948806A50
:103690008862A848C06AC862A648006B0863A5484B
:1036A000406B4863A348806B886302E0C1E04BE154
:1036B000C1E1A048C06BC8639E48006C08649D4887
:1036C000406C48649B48806C88649A48C06CC864AD
:1036D0009848006D08659748406D4865954890ED9D
:1036E000190A084680ED190A01208F4908648F489D
:1036F00000694863084690ED0D0AB8EEC00A10EE66
:10370000101A084610F070F841EC190B9FED840B6D
:1037100053EC102B0FF01AFC41EC180B0FF03CFB94
:1037200081498866814840684861804890ED010A77
:10373000B8EEC00AD0ED190A80EE201A084680EDD6
:10374000061A9FE37C480068784908607A48406818
:1037500048607948806888607748C068C860764863
:10376000006908617448406948617348006A0862EA
:103770007148806988617048C069C8616E48406A54
:1037800048626D48806A88626B48C06AC8626A484D
:10379000006B08636848406B48636748806B8863C8
:1037A0006548C06BC8636448006C08646248406C3C
:1037B00048646148806C88645F48C06CC8645E4837
:1037C000006D08655C48406D48655B4890ED190ADE
:1037D000084680ED190A01205349086453480069DE
:1037E0004863084690ED0D0AB8EEC00A10EE101AB4
:1037F00008460FF0F9FF41EC190B9FED500B53EC0D
:10380000102B0FF0A3FB41EC180B0FF0C5FA464943
:103810008866464840684861444890ED010AB8EE21
:10382000C00AD0ED190A80EE201A084680ED061A6B
:1038300028E3444800683D490860424840684860C1
:103840004048806888603F48C068C8603D4800695B
:1038500008613C48406948613A4880698861394854
:10386000C069C8613748006A08623648406A4862E1
:103870003448806A88623348C06AC8623148006B45
:1038800008633048406B48632E48806B88632D483E
:10389000C06BC8632B48006C08642A48406C4864BD
:1038A0002848806C88642748C06CC8642548006D2F
:1038B00008652448406D4865224890ED190A08467D
:1038C00080ED190A01201849086418480069486306
:1038D000084690ED0D0AB8EEC00A10EE101A084620
:1038E0000FF082FF41EC190B9FED140B53EC102BE2
:1038F0000FF02CFB41EC180B0FF04EFA0A498866CA
:103900000A4840684861094890ED010AB8EEC00ACB
:10391000D0ED190A80EE201A084680ED061AB1E2B1
:10392000000000860FB59941F45B0020DC07002001
:10393000903A0108F83A0108603B0108CDCCCC541C
:1039400055F59B41C83B0108FE480068FE490860E8
:10395000FC4840684860FB4880688860F948C06857
:10396000C860F84800690861F64840694861F54850
:1039700080698861F348C069C861F248006A0862DA
:10398000F048406A4862EF48806A8862ED48C06A41
:10399000C862EC48006B0863EA48406B4863E9483A
:1039A000806B8863E748C06BC863E648006C0864B6
:1039B000E448406C4864E348806C8864E148C06C2B
:1039C000C864E048006D0865DE48406D4865DD4824
:1039D00090ED190A084680ED190A0120DB490864B8
:1039E000D94800694863084690ED0D0AB8EEC00A50
:1039F00010EE101A08460FF0F7FE41EC190B1FED00
:103A0000310B53EC102B0FF0A1FA41EC180B0FF017
:103A1000C3F9CE498866CC4840684861CA4890EDF1
:103A2000010AB8EEC00AD0ED190A80EE201A084645
:103A300080ED061A26E2C6480068C3490860C448FB
:103A400040684860C24880688860C148C068C860F3
:103A5000BF4800690861BE4840694861BC48806948
:103A60008861BB48C069C861B948006A0862B84843
:103A7000406A4862B648806A8862B548C06AC862CF
:103A8000B348006B0863B248406B4863B048806B32
:103A90008863AF48C06BC863AD48006C0864AC482D
:103AA000406C4864AA48806C8864A948C06CC864AB
:103AB000A748006D0865A648406D4865A448806D1C
:103AC0008865A348C06DC865A148006E0866A04817
:103AD00090ED190A084680ED190A01209B490864F7
:103AE000994800694863084690ED0D0AB8EEC00A8F
:103AF00010EE101A08460FF077FE41EC190B9FEDFF
:103B0000950B53EC102B0FF021FA41EC180B0FF032
:103B100043F98E498866084690ED1A0ADFED8F0A50
:103B200080EE201A80ED1A1A87484068486186485E
:103B300090ED010AB8EEC00AD0ED190A80EE201A05
:103B4000084680ED061A9DE1854800687E490860B8
:103B50008348406848608248806888608048C068C0
:103B6000C8607F48006908617D48406948617C48B9
:103B7000806988617A48C069C8617948006A0862CA
:103B80007748406A48627648806A88627448C06AAA
:103B9000C8627348006B08637148406B48637048A3
:103BA000806B88636E48C06BC8636D48006C0864A6
:103BB0006B48406C48646A48806C88646848C06C94
:103BC000C8646748006D08656548406D486564488D
:103BD000806D88656248C06DC8656148006E086682
:103BE0005F4890ED190A084680ED190A01205749EF
:103BF0000864554800694863084690ED0D0AB8EE20
:103C0000C00A10EE101A08460FF0EEFD41EC190B39
:103C10009FED500B53EC102B0FF098F941EC180B63
:103C20000FF0BAF849498866084690ED1A0ADFEDA8
:103C30004B0A80EE201A80ED1A1A4348406848610A
:103C4000414890ED010AB8EEC00AD0ED190A80EEA5
:103C5000201A084680ED061A14E1424800683A49E5
:103C600008604048406848603E48806888603D4839
:103C7000C068C8603B48006908613A4840694861CB
:103C80003848806988613748C069C8613548006A2A
:103C900008623448406A48623248806A8862314823
:103CA000C06AC8622F48006B08632E48406B4863A7
:103CB0002C48806B88632B48C06BC8632948006C14
:103CC00008642848406C48642648806C886425480D
:103CD000C06CC8642348006D08652248406D486583
:103CE000204890ED190A084680ED190A022017496C
:103CF0000864154800694863084690ED0D0AB8EE5F
:103D0000C00A10EE101A08460FF06EFD41EC190BB8
:103D10009FED100B53EC102B0FF018F941EC180B22
:103D20000FF03AF809498866084690ED1A0ADFED67
:103D30000B0A80EE201A80ED1A1A03484068486189
:103D4000014811E0303C0108DC070020F45B002052
:103D5000683D0108D7A3703D0AD74A400000C84813
:103D6000D03D0108983C010890ED010AB8EEC00A68
:103D7000D0ED190A80EE201A084680ED061A81E07F
:103D8000FE480068FE490860FC4840684860FB48FF
:103D900080688860F948C068C860F84800690861B0
:103DA000F64840694861F54880698861F348C06910
:103DB000C861F248006A0862F048406A4862EF4809
:103DC000806A8862ED48C06AC862EC48006B08638C
:103DD000EA48406B4863E948806B8863E748C06BFA
:103DE000C863E648006C0864E448406C4864E348F3
:103DF000806C8864E148C06CC864E048006D086568
:103E0000DE48406D4865DD4890ED190A084680EDB2
:103E1000190A0220DB490864D9480069486308464A
:103E200090ED0D0AB8EEC00A10EE101A08460FF019
:103E3000DBFC41EC190B1FED390B53EC102B0FF091
:103E400085F841EC180B0EF0A7FFCE4988660846AE
:103E500090ED1A0ACA48D0ED190A80EE201A0846D9
:103E600080ED1A1AC64840684861C54890ED010ABD
:103E7000B8EEC00AD0ED190A80EE201A084680ED8F
:103E8000061A00BF00BFBDEC048B10BD0146BE4A40
:103E9000D268412A45D010DC302A2ED006DC202AF8
:103EA0001CD0212A1FD0222A63D121E0312A29D017
:103EB000322A2CD0402A5CD12EE0702A45D006DC74
:103EC000422A33D0502A36D0512A52D138E0722AB1
:103ED00045D0732A48D0752A4BD13BE000202022E0
:103EE000A84B5A644AE001202122A64B5A6445E0BF
:103EF00002202222A34B5A6440E003203022A14B2F
:103F00005A643BE0042031229E4B5A6436E005207F
:103F100032229C4B5A6431E006204022994B5A646D
:103F20002CE007204122974B5A6427E008204222C8
:103F3000944B5A6422E009205022924B5A641DE0AF
:103F40000A2051228F4B5A6418E00B2070228D4BAF
:103F50005A6413E00C2075228A4B5A640EE00D203F
:103F60007222884B5A6409E00E207322854B5A64F2
:103F700004E000202022834B5A6400BF00BF70473A
:103F80002DED0C8B84B000BF00BF00BF00BF00BF91
:103F900000BF7E4D7E4C7F4E0FF09EFC00F049FF2F
:103FA00002207D49086001F0D7FC642001F006FE84
:103FB00001F022FD01F045FD01F01EFE019820F404
:103FC0007C100190019820F4FE400190019820F0AF
:103FD0007F000190019801F015FF07F05FFF01F0ED
:103FE00091FA00F091FD06F0BFFA05F072FC02F0C4
:103FF00041FA40206849086008F03CFB642008F062
:1040000018FB08F01CF9642008F0B4F908F0D4F9A2
:1040100004F084FDFEF71BFD03F0EEFB2020594960
:10402000486400200860E06A20F40040E06262B664
:10403000642001F0B5FD04F054FE642001F0B0FDF1
:104040000CF0A8F800200CF01CF90BF0BFFF53484F
:104050000AF0EEFD4FF420700CF0DAF80A200AF0B6
:1040600010FA642001F09CFD4D48D0F80E204DA1BF
:104070004FF4FA6009F0AFFE01F0BAFC0AF072F8F2
:1040800003900398002846D107F043FA4C4A4DA10B
:104090004FF4FA6009F09FFE4948801FD0F80200F3
:1040A000384908604648801FD0F802B042F6FE2129
:1040B000ABEB01008B451BD009DCABF51850A0F52C
:1040C0008B7048B107280BD013281DD10CE00728AE
:1040D00012D0132818D113E040202A49486414E074
:1040E00041202849486410E04220264948640CE0F9
:1040F00030202449486408E031202249486404E023
:1041000032202049486400E000BF00BF1D48406CD9
:104110001D49C8600EE01C49C868FFF7B7FE074696
:10412000184887672D4800EB07122DA14FF4FA605D
:1041300009F051FE1349486CFEF734FE02F0F8FC1A
:10414000FEF74CFBE06A20F48040E062E06A20F079
:1041500008000830E062E06A20F4005000F50050EA
:10416000E062002005F019F84FF480302249C1F8D0
:10417000AC000121902003F075F93FE0003D0108FB
:10418000DC070020F45B0020705C0020A05D0020B4
:1041900098070020885A002018080240A84F0108FC
:1041A0001802002054686F726C616273204B535484
:1041B0003130310A53775265762025303658000069
:1041C000FA5F0020537461676520636F6E6E6563EC
:1041D0007465643A0A252E38730000003C050020FF
:1041E0005374616765205065727369737465643ACE
:1041F0000A252E387300000084060020FE4890ED4A
:104200001A0ABCEEC00AFD4880ED2B0A0021C0F856
:10421000B0100121912003F025F90121112003F0B4
:1042200021F9642001F0BCFC0121112003F01AF9EE
:10423000F248D0F8B00040F6C411884205DCEF48DF
:10424000D0F8B0004942884215DAE06A20F4804094
:1042500000F58040E062E06A20F00800E062E06A79
:1042600020F40050E062012004F097FFE4A14FF435
:10427000FA6009F0B0FDEA48C068722803D0E84847
:10428000C068732820D103F00BFA0220E549C86505
:10429000DA48B0F800900846C06D022817D1D74818
:1042A000008840F40070D54908800121802003F087
:1042B000D9F8D248008840F48070D04908800121A4
:1042C000802003F0CFF802E00120D649C865D9E389
:1042D00001F048FE8046B8F1900F02D1D2A001F063
:1042E00074F8D848D0F80001012805D1FCF71FFA6E
:1042F0000220D449C1F8000101F097FE01F076FCDC
:1043000000287DD0D04890F82C00C0F3C01018B120
:1043100040F28140FCF7A0F8CC4800680A2808DA8F
:104320000420CB490860C9480068401CC7490860A0
:1043300031E0C64800680A280DDBC448006814282C
:1043400009DA4FF48020C2490860C0480068401C68
:10435000BE4908601FE0A08DC0F3803020B1A8A145
:104360004FF4FA6009F037FD0020B8490860B948F9
:104370000068401CB74908600846006802280ADB4C
:1043800000200860A748006E012804D1B2A14FF4B4
:10439000FA6009F020FDA348C06D02284DD101212B
:1043A000112003F05FF80121282003F05BF8B048EA
:1043B000406C722802D0732806D102E0DFF8B49274
:1043C00005E0DFF8B49202E0DFF8A89200BF00BF7A
:1043D0008A48D0F80801484506DC8848D0F808012A
:1043E000C9F10001884228DA01208E490866C865B3
:1043F000824800884FF6FF6108408049088000E04D
:10440000FBE20121802003F02DF803F03FF90020AA
:104410008449086399480068022803D140F22B5070
:10442000FCF71AF895480068022806D1944B48F624
:10443000BB0200218120FCF70FF804F095FD7949BB
:10444000C861C86904F09AFD764908620846006BA5
:1044500020B9744A316CD06905F097FD894800682D
:10446000012121EA50206F49C862C86A08F0C5F9E5
:104470006C4948620846406A10B37348C06AC0F38A
:10448000404010B970480069D0B103207E490860EF
:1044900002206D494861002008610846C06A20F08A
:1044A0001000C8620846C06A20F020002030C862B0
:1044B00005207549486003F0E9F800205949486231
:1044C000584B9B6A0BB1012300E000231A46554B61
:1044D000D969586A343308F04EFB52490863086BB7
:1044E00008F0AFFE69480069012121EA10204D491A
:1044F0004865486DFEF7D0FB4A4988620846006B64
:10450000002873D10846406B00286FD04FF0010A95
:104510003AE24448406B00EA0A00402832D00CDC02
:10452000082826D004DC012861D0022860D110E0E0
:10453000102846D02028F9D1B0E0802859D0B0F515
:10454000807F20D0B0F5007F32D0B0F5806FEDD104
:104550000EE07F21F06D90FBF1F028494867474855
:104560000068022803D140F22250FBF775FF08E2F1
:1045700000BF42480068022803D140F22250FBF7F6
:104580006BFFFEE1FDE1424890ED340A2448D0ED96
:10459000050A20EE200ABDEEC00A86ED090A37485A
:1045A0000068022803D14FF48360FBF755FFE8E170
:1045B00032480068022803D140F22B50FBF74CFF31
:1045C000DFE12148808DC0F3403098B9E06A20F4E3
:1045D0008040E062E06A20F008000830E062E06AB3
:1045E00020F4005000F50050E06253E0D4E182E096
:1045F000C6E175E051E00000DC07002084060020E1
:1046000057726F6E67205374616765200A54757224
:104610006E206F6666204B5354313031000000002D
:10462000705C0020785B0020496E76616C696420C4
:10463000415054206D65737361676520666F726DBC
:1046400061742E00740000209807002044000020B0
:104650001804024054000020536572766F204572A2
:10466000726F72200A486F6D652053746167650030
:10467000F45B0020B8050100E0930400E05B00203B
:10468000DC56010810080240A05D00200000024036
:10469000885A0020002004F080FD72E1FA48808DE5
:1046A000C0F34030D8B102F0F1FFE06A20F0100012
:1046B000E062E06A20F020002030E06205206860BF
:1046C000E06A20F48040E062E06A20F00800E062E6
:1046D000E06A20F40050E062012004F05EFD50E149
:1046E000EA49486CFEF75EFB02F022FAE748406CAC
:1046F000E749C86045E1E448808DC0F340300028B8
:1047000076D0E148808DC0F3C030002870D0DF48FB
:10471000406C70287CD1DF4890ED34AA90ED340ACB
:10472000DB48D0ED050A20EE200AF0EE409AD94889
:10473000D0ED358A3AEE688A18EE100A0FF054F878
:1047400041EC1C0BB0EE4C0AF0EE6C0A0DF0D4FDFF
:10475000B0EE40BAF0EE60BA51EC1B0B0EF01CFB51
:1047600009EE900ACA4890ED050A60EE08AA9FED8E
:10477000CA0AF4EEC09AF1EE10FA3BDDB5EEC08A3B
:10478000F1EE10FA19DD90ED050ADFEDC40A20EE16
:10479000200AF0EE409AD0ED050AB0EE690A18EE54
:1047A000200AB0EE40DAB84890ED000AB8EEC00A30
:1047B00030EE0D0AB0EE409A25E0B54890ED050ABE
:1047C000DFEDB60A20EE200AF0EE409AD0ED050AA1
:1047D000B0EE690A08EE200AB0EE40DAAA4890ED81
:1047E000000AB8EEC00A30EE0D0AB0EE409A0AE0B8
:1047F00051E00DE0A44890ED000AB8EEC00A30EE9A
:104800002A0AB0EE409ABDEEC90A8DED020A0DE00B
:10481000A04890ED340A9E48D0ED050A20EE200A0B
:10482000B0EE409ABDEEC90A8DED020AE06A20F4AE
:10483000003000F50030E062E06A20F40010E06231
:10484000E06A20F00200E062012068600298A8603F
:10485000A8682168884201DA706C00E00020E860F6
:10486000B068286130696861B069A861F069286240
:1048700094F82C00C0F3C01028B1E06A20F01000BA
:104880001030E06203E0E06A20F01000E06284494A
:10489000C86D03F0B6FE7C48808DC0F3C030E8BB25
:1048A0007A48006C02280FD118EE900A0EF09CFF97
:1048B00041EC1B0B842053EC1B2B7AA100904FF48E
:1048C0007A7009F088FA5AE07048406C732803D077
:1048D0006E48006C722845D16E4890ED340A6C48E1
:1048E000D0ED050A20EE200AB0EE409ABDEEC90ACE
:1048F0008DED020AE06A20F4003000F50030E0623D
:10490000E06A20F40010E062E06A20F00200E06259
:10491000012068600298A860A86800E02FE0216884
:10492000884201DA706C00E00020E860B06828611D
:1049300030696861B069A861F069286294F82C0058
:10494000C0F3C01028B1E06A20F010001030E0621F
:1049500003E0E06A20F01000E0625149C86D03F006
:1049600050FE0CE018EE900A0EF03EFF41EC1B0BDF
:1049700053EC1B2B51A14FF47A7009F02CFA00E094
:1049800000BF00BF4FEA4A0ABAF1000F7FF4C1AD81
:1049900000204349486300BF4148806A012819D17B
:1049A0004C4800F0F1FC0220FBF756FD02F06EFED1
:1049B000052068603448C06A20F010003249C8629F
:1049C0000846C06A20F02000C8620846C06A20F08D
:1049D0008000C8623248406800280DDD3048017907
:1049E0004068401E2E4A506001F0040010B109F0EA
:1049F00015FF01E009F017FF00BFA08DC0F34030A4
:104A000018B105F0C1F904F079FF33484168C0F8E6
:104A1000A01003F08EFF3148C06A01281BD12F4837
:104A2000006B2D49D1F8A010884205DB2B48006BA4
:104A30002949496888420CDD2848006B2649D1F88D
:104A4000A010884207DC2548006B2349496888424A
:104A500001DB07F04CFD07F039FA07F041FA07F0E7
:104A600046FB00200E49086403F0C7FF0C48006CA9
:104A7000012803D10A49486CFDF76FFD04F010FCD2
:104A800004F0D6FB24E4000098070020F45B00202B
:104A9000705C0020885A0020000034430000B443BA
:104AA000785B0020417420252E346625630A486F08
:104AB0006D652053746167652020000041742025D6
:104AC0002B2E3466206D6D0A486F6D65205374611E
:104AD000676500009C300008840600209C020020CE
:104AE000BFF34F8F0648006800F4E06005490843B3
:104AF000001D03490860BFF34F8F00BFFEE70000B1
:104B00000CED00E00000FA05864A126842F48022AB
:104B1000844B1A60834A103A1268834B1A43814BC4
:104B2000103B1A60814A126822F480127F4B1A608F
:104B30001A46126842F400121A601A1D126822F412
:104B400080621B1D1A60794A0C32126822F44012EE
:104B5000764B0C331A601A1F126822F440121B1F86
:104B60001A60724A526A22F4706242F4E0636F4A39
:104B70005362126822F480026C4B1A601A46126863
:104B800042F400021A60694A0C32126822F44002B0
:104B9000664B0C331A60654A526A22F4704242F442
:104BA000E043624A53626249881040F26D12614BE1
:104BB0001A8000225F4B08331A801B1D1A805D4A41
:104BC000121D128842F400525A4B1B1D1A80594A7A
:104BD0000C32128842F0C002564B0C331A80564AEF
:104BE000926D22F00102544B9A6500E000BF524AD8
:104BF000926D02F00102002AF8D14F4A926D22F024
:104C000060624D4B9A651A46926D42F000629A6559
:104C10001A46926D42F488629A65464A121F1A66D5
:104C20000022DA651A46926A22F001029A6200E0D6
:104C300000BF414A926A02F00102002AF8D13E4ABE
:104C4000926A22F060623C4B9A621A46926A42F083
:104C500000629A621A46926A42F4A0629A62354AE7
:104C6000121F1A63354A5A631A15DA62314A083A32
:104C7000128822F040022F4B083B1A802D4A121D49
:104C8000128842F00C022B4B1B1D1A802A4A926A92
:104C900042F00102284B9A6270472749C96AC1F560
:104CA0008061274A1268914202D14FF6FF700FE0EF
:104CB00023490A680968491C214B19601F49885C0F
:104CC00019460968B1F5806F02D100211A461160BA
:104CD0007047194A926D22F00102174B9A6500E065
:104CE00000BF154A926D02F00102002AF8D1124A63
:104CF0005066D1650F4A083A128822F040020D4BE7
:104D0000083B1A804FF000620B4B9A601A46926D76
:104D100042F001029A65704706480838008800F0A2
:104D2000400070474038024002002000000402406A
:104D3000007A030A0848004000600240880800200A
:104D40005800002010B14FF4004101E04FF0004145
:104D5000FE4A1160704708B1042101E04FF4802140
:104D6000FB4A1160704708B1082101E04FF40021AF
:104D7000F84A91617047012800D102E0022800D171
:104D8000002008B1042101E04FF48021F24A1160B3
:104D900068B9EE491839096841F00401EB4A183A3C
:104DA00011601146096821F00801116014E0E7491B
:104DB0001839096821F00C01E44A183A1160E349F6
:104DC0000C39096821F00401E04A0C3A11601146DF
:104DD000096821F0080111607047012800D102E044
:104DE000022800D1002010B14FF4004101E04FF043
:104DF0000041D94A116058B9D649096841F0040107
:104E0000D44A11601146096821F0080111600FE0D1
:104E1000D049096821F00C01CE4A11601146C968D9
:104E200021F00401D1601146C96821F00801D16068
:104E30007047CA48006840F00100C8490860C5488A
:104E4000006820F00300C34908600846C06820F0ED
:104E50000100C8600846C06820F00200C86008462B
:104E6000006820F00C0008600846C06820F00400CC
:104E7000C8600846C06820F00800C860084600689E
:104E800040F4A87008600846006820F428700860A4
:104E90000846806940F0100088610846006820F4E8
:104EA000403008600846C06820F48030C86008467A
:104EB000C06820F40030C8600846006820F0404018
:104EC00008600846C06820F08040C8600846C06896
:104ED00020F00040C860A148006840F002009F49EF
:104EE00008609A481838006840F01100974918394E
:104EF00008600846006820F02200086093480068B7
:104F000040F48030914908600846006840F48020F1
:104F100008608E481838006840F004008B49183942
:104F200008600846006820F00800086087480068AC
:104F300040F400308549086084481838006820F043
:104F4000C00082491839086080480C38006820F099
:104F500040007E490C3908600846006820F0800057
:104F600008607A481838006820F44070774918398A
:104F7000086076480C38006820F4807073490C395A
:104F800008600846006820F4007008606F48183810
:104F9000006820F440606D49183908606B480C388F
:104FA000006820F4806069490C3908600846006890
:104FB00020F40060086065481838006820F440500C
:104FC00062491839086061480C38006820F4805044
:104FD0005E490C3908600846006820F400500860FB
:104FE0005A481838006820F4404058491839086079
:104FF00056480C38006820F4804054490C39086049
:105000000846006820F400400860504818380068DE
:1050100020F440304D49183908604C480C3800687D
:1050200020F4803049490C3908600846006820F4B3
:105030000030086045481838006820F44020434993
:105040001839086041480C38006820F480203F4936
:105050000C3908600846006820F4002008603B48CE
:105060001838006840F0AA403849183908600846E6
:10507000006820F02A4008603448006840F0805002
:10508000324908600846006840F000500860084651
:10509000006840F4804008600846006840F0004026
:1050A00008602E48006840F004002C4908602A4837
:1050B0001838006840F0550027491839086008463C
:1050C000006820F0AA0008601020234908602248E8
:1050D0001838006840F480701F4918390860084685
:1050E000006820F4007008601B481038006820F445
:1050F000407019491039086017481838006820F4C2
:10510000406015491839086013480C38006820F4CD
:10511000406011490C3908600F48006840F4803045
:105120000D4908600846006840F4003008600846F1
:10513000006840F4802008600846006840F40020C1
:1051400008600548183800680AE0000018040240AA
:10515000180C02400000024018080240303802409B
:1051600020F440607549086074480C30006820F4F1
:10517000806072490C3108600846006820F40060C5
:1051800008606E48006840F4A0406C49086008461A
:10519000006820F42040086068481830006840F03B
:1051A00040006649183108600846006840F08000F9
:1051B00008606248006820F44030604908605F4839
:1051C0000C30006820F480305C490C3108600846DF
:1051D000006820F4003008605848006820F440203F
:1051E0005649086055480C30006820F48020534927
:1051F0000C3108600846006820F4002008604F4821
:10520000006820F040604D4908604C480C30006850
:1052100020F0806049490C3108600846006820F0A1
:10522000006008604548006820F04050434908602D
:1052300042480C30006820F0805040490C31086032
:105240000846006820F0005008603C48006840F0C4
:1052500080403A4908600846006820F00040086035
:1052600036481830006840F400403449183108606E
:105270003348006840F00800314908603148006850
:1052800040F010002F4908602C48006820F02000F2
:105290002A4908602B481830006840F0040029496A
:1052A0001831086070472848006820F00C00264933
:1052B00008600420214918310860BFF35F8F22483D
:1052C00010300068C0F3400070474FF480211B4A43
:1052D0001832116008B1022101E04FF400311A4A7E
:1052E000183211601849096841F00401164A11602A
:1052F00070471648006820F00C00144908604FF40D
:1053000000400E4918310860BFF35F8F0F480069F5
:10531000C0F3400070474FF00041084A1832116056
:1053200008B1022101E04FF40031084A91611146B1
:10533000096841F004011160704700000008024054
:1053400030380240000C02400004024000000240DD
:1053500010B558480068B0B1FFF7DEFC98B1554869
:10536000016855480068FFF7B4FC5348006853498A
:10537000884202D101F5806000E050484E49086043
:1053800000204C49086010BD0FB438B505A8009046
:1053900048480068B0F5806F02D349A000F015F8C6
:1053A00045490968434A12688818009A04990BF025
:1053B000C7F804463F48006820443E490860002082
:1053C0000090204638BC5DF814FB0446214644A0FA
:1053D000FFF7DAFF01E0FFF7BBFFFCE72DE9F04143
:1053E00005460E4600274448006808B94348056052
:1053F0003DE0082C04D00A2C1DD00D2C20D119E042
:105400003D480068A8B108213DA0FFF7BDFF20215D
:105410003BA0FFF7B9FF082139A0FFF7B5FF3648D9
:105420000068401E3449086034480068401E334913
:1054300008601BE000BF012700202F49086015E02D
:105440002D480068B04210D221462DA0FFF79CFFE6
:105450002A4909680C7029480068401C27490860DF
:1054600025480068401C2449086000BF00BFFFF7C2
:1054700014FC04464FF6FF718842BAD16FB1002088
:105480001E49096808701D480068401C1B490860D7
:1054900008460068401BBDE8F0810020FBE710B51E
:1054A00000E000BFFFF738FC0028FAD0FFF750FFFC
:1054B00010BD0000600000205C000020880C00206F
:1054C000436F6E736F6C65207072696E74206275C5
:1054D00066666572206F766572666C6F7700000095
:1054E0000D0A457869742077697468206572726F57
:1054F000723A20257300000064000020680000203C
:1055000025630000F948006840F01000F749086082
:10551000F64814380068F6490843F449143908601D
:10552000F448006820F48020F249086008460068CA
:1055300040F4002008600846406820F4007048608D
:105540000846C06820F44020C8600846806820F4FF
:10555000402088600846406A20F0F00040F070016A
:10556000E4484162006820F48010E249086008467F
:10557000006840F4001008600846C06820F400107D
:10558000C8600846C06840F48010C8600846406A99
:1055900020F4706040F4E061D6484162C002D54911
:1055A00088610846006840F080700860084600681E
:1055B00020F0007008600846806840F04070886005
:1055C0000846006820F4400008600846C06820F4DF
:1055D0000000C8600846C06840F48000C86040F21F
:1055E000D920C54908810020088288820846808920
:1055F00040F4005088810846808A40F0C0008882CC
:10560000BE48006820F00100BC49086000E000BF0F
:10561000BA48006800F001000028F8D1B7480068D7
:1056200020F06060B54908600846006840F00060FE
:1056300008600846006840F488600860AE48001DB5
:10564000AE49083108600020091F0860AB4878386F
:10565000006820F00100A9497839086000E000BF27
:10566000A6487838006800F001000028F7D1A34868
:105670007838006820F06060A049783908600846F2
:10568000006840F0006008600846006840F4A060D0
:1056900008609948001D9949703908609848091DAB
:1056A000086008159549743908609348008820F00F
:1056B0004000914908800846808940F00C008881AC
:1056C0008E487838006840F001008C4978390860CD
:1056D00070478648001F006840F400308349091F66
:1056E000086008460068824908438049091F08602D
:1056F0008048006820F480207E49086008460068E1
:1057000040F4002008600846406820F400704860BB
:105710000846C06820F44020C8600846806820F42D
:10572000402088600846406A20F0F00040F0700198
:1057300070484162006820F480106E490860084695
:10574000006840F4001008600846C06820F40010AB
:10575000C8600846C06840F48010C8600846406AC7
:1057600020F4706040F4E06162484162C002614927
:1057700088610846006840F080700860084600684C
:1057800020F0007008600846806840F04070886033
:105790000846006820F4400008600846C06820F40D
:1057A0000000C8600846C06840F48000C86040F24D
:1057B000D9205149088100200882888208468089C2
:1057C00040F4005088810846808A40F0C0008882FA
:1057D0004A48006820F001004849086000E000BF26
:1057E0004648006800F001000028F8D143480068EE
:1057F00020F06060414908600846006840F00060A1
:1058000008600846006840F4886008603A48001D57
:105810003A49083108600020091F08603748783885
:10582000006820F0010035497839086000E000BFC9
:1058300032487838006800F001000028F7D12F487E
:105840007838006820F060602C4978390860084694
:10585000006840F0006008600846006840F4A060FE
:1058600008602548001D2549703908602448091D35
:10587000086008152149743908601F48008820F025
:1058800040001D4908800846808940F00C0088814E
:105890001A487838006840F00100184978390860E3
:1058A0007047164974390968C1F58061154A126854
:1058B000914202D14FF6FF700FE012490A68096861
:1058C000491C104B19600E49885C19460968B1F5EE
:1058D000806F02D100211A4611607047074A126892
:1058E00022F00102054B1A600FE00000443802402C
:1058F000010040000000024000100140B864024076
:10590000881400206C00002000BF114A126802F0C9
:105910000102002AF8D10E4A0C3210600C4A121D06
:1059200011600C4A128822F040020A4B1A804FF094
:105930000062074BAC3B1A60054A126842F0010254
:10594000034B1A6070470348008800F0400070471E
:10595000B864024000100140FE48006840F4003086
:10596000FC490860A720FC49088040F2E730091D87
:1059700008604010F8490C310860F7480838008882
:1059800040F00100F44908390880F34810380088D5
:1059900040F06000F04910390880081F008840F08E
:1059A0000100091F0880EC482838008840F00100F9
:1059B000E94928390880E748006840F48030E54923
:1059C00008602020E54908810846008940F007006A
:1059D0000881002008854FF6FF70C86208460088DD
:1059E00040F00100088070470246501A80B27047AC
:1059F000DA48406A80B27047D648001F006840F01D
:105A00001000D449091F08605320D54908854FF676
:105A1000FF704862C8620846008840F008000880AD
:105A20000846008840F00100088070474142CC4899
:105A30004162018841F0010101800188C907FCD160
:105A40007047C448001F006840F00800C149091FA2
:105A50000860C0482438006840F00800BD49243977
:105A6000086000E000BFBB482438006800F0080070
:105A70000028F7D0B7482438006820F00800B5495E
:105A8000243908600020B7490880091F0860B14820
:105A90001438006840F00100AE4914390860B2487B
:105AA000006820F00100B04908600846006840F036
:105AB000020008600846006A20F00F00801C08629F
:105AC0004FF0FF30A749091D08605720A54920392C
:105AD0000880A4481038008840F00100A14910391E
