:020000040800F2
:1000000050740020150300083303000855620008EF
:1000100037030008390300083B0300080000000014
:100020000000000000000000000000003D03000888
:100030003F0300080000000031620008430300088D
:100040004503000845030008450300084503000870
:100050004503000845030008450300084503000860
:100060004503000845030008450300084503000850
:100070004503000845030008450300084503000840
:100080004503000845030008450300083F560008E3
:100090001355000845030008450300084503000800
:1000A0004503000845030008450300084503000810
:1000B000F52B000845030008450300084503000828
:1000C00045030008450300084503000845030008F0
:1000D00045030008450300084503000845030008E0
:1000E00045030008F12900084503000845030008FE
:1000F00045030008450300084503000845030008C0
:100100004503000845030008450300080D2C0008BE
:10011000450300084503000845030008450300089F
:10012000450300084503000845030008450300088F
:10013000450300084503000845030008450300087F
:10014000450300084503000845030008450300086F
:10015000450300084503000845030008450300085F
:10016000450300084503000845030008450300084F
:10017000450300084503000845030008450300083F
:10018000450300084503000800F002F800F0B2F84B
:100190000AA090E8000C82448344AAF10107DA45E2
:1001A00001D100F0A7F8AFF2090EBAE80F0013F082
:1001B000010F18BFFB1A43F0010318473CD9000098
:1001C0005CD900000A444FF0000C10F8013B13F01A
:1001D000070408BF10F8014B1D1108BF10F8015BA0
:1001E000641E05D010F8016B641E01F8016BF9D193
:1001F00013F0080F1EBF10F8014BAD1C0C1B09D1EA
:100200006D1E58BF01F801CBFAD505E014F8016B5B
:1002100001F8016B6D1EF9D59142D6D370470000ED
:100220000023002400250026103A28BF78C1FBD8FF
:10023000520728BF30C148BF0B6070476E2909F0D4
:100240000D86702909F0628666290BF03C876529C6
:100250000BF0398767290BF036876129AFF30080EF
:1002600003681B0A28BF41F08001692909F0BA859B
:10027000642909F0B785752909F0B4856F290AF05A
:10028000A184782909F02E86E9290AF03984E42925
:100290000AF03684F5290AF03384EF290AF09E84A7
:1002A000F82909F02D860368DB0928BF41F0800199
:1002B00063290AF0BA8373290AF0BF83E3290AF09D
:1002C0007B85F3290AF08085002070471FB50BF06D
:1002D000F5FE0AF0D1FC0400002000210BF05AFECC
:1002E000401C6060002000210BF03EFEE0601FBD5E
:1002F00010B510BD0AF0BAFF1146FFF7E7FF01F095
:100300009EF80AF0E1FF03B4FFF7F2FF03BC0AF026
:10031000E1FF00000F481049026800608A4203D0E4
:100320000E4880470E4800470E48D0F800D040687D
:100330000047FEE7FEE7FEE7FEE7FEE7FEE7FEE733
:10034000FEE7FEE7FEE7000007480849084A094BB8
:1003500070470000F01F0020EFBEADDE1F3E00081A
:10036000890100080000FF1F506E0020507400201B
:1003700050700020507000202DE9F84304460D46CF
:100380004FF000080026112D73D2DFE805F0720946
:10039000727D729072CA72D172FC72FA3AF9F800E8
:1003A0004FF008082580FE4890ED030ADFEDFD0AB6
:1003B00020EE200A10EE101A08460BF032FE00F371
:1003C0000F006080F64890ED040ADFEDF60A20EE9B
:1003D000200A10EE101A08460BF023FE00F30F005F
:1003E000A080EF4890ED050ADFEDEE0A20EE200A2E
:1003F00010EE101A08460BF014FE00F30F00E08018
:1004000052E14FF01E0804F1020424F8025CE448B3
:1004100090ED030A8DED000A00982060E04890ED11
:10042000040A8DED000A00986060DD4890ED050A31
:100430008DED000A0098A060D94890ED070A8DED77
:10044000000A0098E060D64890ED080A8DED000A99
:1004500000982061D24890ED090A8DED000A0098BD
:100460006061A4F10204CE48806A022802D1012012
:1004700001E018E102206083C948C06A012800D168
:1004800000E00220A0830FE14FF00C082580C64851
:10049000008B6080C448408BA080C348C08BE08044
:1004A000C148008C2081C048408C6081FCE04FF046
:1004B00012082580BA48B0F848006080B848B0F803
:1004C0004A00E080B648B0F84C00A080B448B0F8CC
:1004D0004E002081B248B0F844006081B048B0F8C6
:1004E0004600A081AE4890ED140ADFEDB00A20EE80
:1004F000200A10EE101A08460BF093FD00F30F00CF
:10050000E081A74890ED150ADFEDA80A20EE200A49
:1005100010EE101A08460BF084FD00F30F00208245
:10052000C2E04FF0040825809F48C08E6080BBE089
:100530004FF0060800269C48C08E012802D146F0E4
:1005400001060CE09848C08E022802D146F002064F
:1005500005E09548C08E032801D146F0040600202E
:1005600004F064FB08B146F48016012004F05EFB41
:1005700008B146F400162580C4F8026094E07AE0E1
:1005800029E01EE0FFE74FF0080825808448008836
:1005900060800020A080824840686FF0004188425F
:1005A00001D1002705E07E4840684FF4167190FBAA
:1005B000F1F77B4880684FF4007101FB0070E08028
:1005C00072E04FF0060825807748008C60807648FE
:1005D000408CA08068E04FF0220825807048B0F879
:1005E000780060806E48B0F87000A0806C48806D24
:1005F0003230642148434FF6FF7190FBF1F0E08008
:100600006748006E3230642148434FF6FF7190FB1B
:10061000F1F020816248806E32306421484347F611
:10062000FF7190FBF1F060815D48B0F87C00A08123
:100630005B48B0F87400E0815948C06D32306421E5
:1006400048434FF6FF7190FBF1F020825448406E12
:100650003230642148434FF6FF7190FBF1F0608225
:100660004F48C06E32306421484347F6FF7190FB1B
:10067000F1F0A08218E04FF0100825800020608083
:100680004948008D10F4804F03D0608840F001008D
:1006900060804548008D10F4004F03D0608840F022
:1006A0000200608000E000BF00BF4046BDE8F88364
:1006B0002DE9F0472DED068B8AB0044620881FFAFD
:1006C00080F9B9F10D0F73D00CDCB9F1010F13D023
:1006D000B9F1050F6DD0B9F1070F6BD0B9F10B0F60
:1006E00069D1FAE0B9F10E0F6BD0B9F10F0F7DD0DF
:1006F000B9F1100FF4D11FE2608800EE100AB8EED5
:10070000400ADFED280A80EE201A254880ED031A02
:10071000A08800EE100AB8EE400ADFED220A80EE53
:10072000201A1F4880ED041AE08800EE100AB8EE87
:10073000400ADFED1C0A80EE201A194880ED051AE8
:1007400090ED050A10EE101A08460BF03FFC41EC44
:10075000100BB0EE408AF0EE608A114890ED040A6A
:1007600010EE101A08460BF031FC41EC100BB0EE05
:10077000409AF0EE609A0A4890ED030A10EE101AC3
:1007800008460BF023FC41EC100BB0EE40AAF0EE53
:1007900060AA8DED028B8DED009B53EC1A2B0CE0C3
:1007A0005C60002000FEFF461C6100200000004746
:1007B000D7E014E17EE0E2E103E0F4A001F02EFCDA
:1007C000DEE154F8020F04909DED040AF74880ED35
:1007D000030A606804909DED040AF44880ED040A61
:1007E000A06804909DED040AF04800E052E180ED1D
:1007F000050A206904909DED040AEC4880ED080A82
:10080000606904909DED040AE84880ED090AE068FB
:1008100004909DED040AE54880ED070A208BA4F1C1
:10082000020401281CD1E14890ED091AF0EE410ABA
:1008300090ED081AB0EE410A684604F0F7FB142266
:10084000694605A809F0CBFD72B6142205A9D74860
:10085000303009F0C4FD0220D449886262B60FE04E
:100860001422D34905A809F0BAFD72B6142205A9CD
:10087000CE48303009F0B3FD0020CC49886262B622
:10088000A08B01280DD1C948D0ED070AB0EE600A4F
:1008900004F084FCC54880ED060A0120C349C86203
:1008A00007E0B7EE000AC14880ED060A0020BF4904
:1008B000C86265E16088BF498886898E012901D0B8
:1008C000012100E00021084604F040F9B948828E79
:1008D000C18EB9A001F0A2FB52E1B4480668476896
:1008E000D0F808806088B1490860E08828B941F2F2
:1008F000707048600220886018E0E088C11700EB43
:10090000D1514912A0EB4125E088C11700EBD1512C
:100910004912A64A916025B96FF00040114648601F
:1009200004E04FF416706843A04948609F4800688F
:10093000B04207D19D484068B84203D19B488068C7
:10094000404501D0012000E000208246BAF1000FAE
:1009500006D00020974908659449086804F0CFF94B
:100960000EE1B4F90200404200F30F00914988847F
:10097000A088C8840846B0F924008C49B1F94A100F
:10098000884204DD8948B0F84A008A498884894849
:10099000B0F924008549B1F94810884204DA834847
:1009A000B0F84800834988848248B0F926007F491E
:1009B000B1F94E10884204DD7C48B0F84E007D4904
:1009C000C8847C48B0F926007849B1F948108842BB
:1009D00004DA7648B0F848007649C884D0E06088E8
:1009E0007249A1F84800E088A1F84A00A088A1F85F
:1009F0004C002089A1F84E006089A1F84400A0892C
:100A0000A1F84600E08900B200EE100AB8EEC00A74
:100A10005FED9A0A80EE201A084680ED141A208AAB
:100A200000B200EE100AB8EEC00A5FEDA00A80EE38
:100A3000201A084680ED151A90ED150A10EE101ACE
:100A400008460BF0C3FA41EC100BB0EE408AF0EE12
:100A5000608A564890ED140A10EE101A08460BF002
:100A6000B5FA41EC100BB0EE409AF0EE609A8DEDC5
:100A7000008B53EC192B5FA001F0D0FA4B49B1F871
:100A80004410012901D0012100E00021084604F0B2
:100A900065F875E0608845498867A0880867E08840
:100AA000C0EB0040642190FBF1F04049886520894B
:100AB000C0EB0040642190FBF1F03C49086660897E
:100AC000C0EBC030642190FBF1F038498866A18901
:100AD0003648C167E1894167208AC0EB0040642144
:100AE00090FBF1F13148C165608AC0EB00406421A0
:100AF00090FBF1F12D484166A08AC0EBC030642123
:100B000090FBF1F12948C166816F002004F06FF875
:100B10002849C8622548C16F012004F068F82549BA
:100B200008632248816F002004F020F81F48C16F3D
:100B3000012004F01BF823E0A07810F0010F06D08C
:100B40001C48806A40F480401A49886205E01948D0
:100B5000806A20F4804017498862A07810F0020F64
:100B600006D01448806A40F400401249886205E0CB
:100B70001048806A20F400400E49886200E000BFFF
:100B800000BF0AB0BDEC068BBDE8F0870D0A5049E6
:100B9000443A2050203D2025662C2049203D202528
:100BA000662C2044203D2025660000005C6000206B
:100BB000CCC000081C6100200D0A43757272656E7E
:100BC00074206F70206D6F6465203D2025642C209B
:100BD0006E6577206F7065726174696E67206D6FE6
:100BE0006465207265717565737465643A20256467
:100BF000000000000D0A466565646261636B206752
:100C000061696E203D20256620616E6420256600A6
:100C10002DE9F74F88B082461746BAF1000F07D08A
:100C2000D346BAF8000080B207900AF1060908E03E
:100C3000099830B14FF0000BD9460998008880B26E
:100C400007903C46BD1D0020E0700120207150201F
:100C5000607100200590C7F800010798B0F5076F94
:100C600071D012DC122872D006DC02286DD0052863
:100C70001FD011285CD160E0142867D015286ED0F1
:100C8000A0F500702338F5D153E0B0F5086F7AD0A5
:100C900008DCA0F50060713872D0012871D00428FA
:100CA000E8D1DCE0A0F5006081385AD00128E1D11C
:100CB00051E0062020805420A070207940F0800070
:100CC00020715422F949284609F044FBF8A0007825
:100CD00085F84200F6A0417843204155F4A0C17840
:100CE00044204155F2A0017945204155F3A00079F7
:100CF000202801D1302001E0F0A00079462148559C
:100D0000EEA0417947204155ECA00178482041559B
:100D1000EAA0417849204155E8A081784A20415510
:100D200000214B204155012005900220E649086032
:100D30006CE24020E549C86368E20120E24948606E
:100D40000020C86062E268E001E060E0A7E0002007
:100D5000DD4948605AE20020DB49C86056E243E2C0
:100D600011E0D948806801280CD1D748C168C06813
:100D7000401CD54AD06010460069814202DD45E240
:100D800052E050E000BF40F6810020800E20A070AD
:100D9000207940F080002071CC48008B2880CB481F
:100DA000408B6880C948C08BA880C848008CE88008
:100DB000C648408C2881C548C08E012802D1C5F89C
:100DC0000A000DE0C148C08E022802D1C5F80A0011
:100DD00006E0BE48C08E032802D10420C5F80A00F0
:100DE000002003F023FF28B1D5F80A0040F480105A
:100DF000C5F80A00012003F019FF28B1D5F80A0050
:100E000040F40010C5F80A0001200590FEE104201E
:100E1000AD49086000200590F8E14846FFF748FC1E
:100E200000200590F2E100BFBAF1000F02D09BF85C
:100E3000020001E00998406880B2069028460699B1
:100E4000FFF79AFA049040F6720020800498A07090
:100E5000207940F08000207101200590D6E1A82281
:100E60009B499C4809F0BBFA9B489A492039C1F834
:100E7000C800CC2200219748203802F031FC012321
:100E8000CC2200219348203802F07FFB06460EB9A1
:100E900092A100E095A1084601F0C0F8B6E1D9F8AA
:100EA00000000390D9F804000290D9F80880D9F81E
:100EB0000C0001900398482870D00EDC452848D0DB
:100EC00006DC012818D0022830D017282DD133E0B5
:100ED000462864D04728F9D17DE04B2878D004DC3F
:100EE000492876D04A28F1D1C6E0B0F5C87F71D044
:100EF000B0F5487FEAD13BE1764920390298086095
:100F0000CC2200217348203802F0EAFB0123CC22D6
:100F100000217048203802F038FB06460EB978A14F
:100F200000E07BA1084601F079F85BE169482038D0
:100F300000687C49486055E1029830B1012062495F
:100F400088600846C0F8108002E000205E49886092
:100F500048E10298A0F5E061D3391ED11822724908
:100F60005C481C3809F03BFA70485A492039C8617E
:100F7000CC2200215748203802F0B2FB0123CC22BA
:100F800000215448203802F000FB06460EB95CA14F
:100F900000E05FA1084601F041F823E137E0019845
:100FA00000F580406049086000EE108AB8EEC00A83
:100FB000DFED5F0A70EE600A9FED5E1A80EE810A37
:100FC000F7EE000A30EE200A084680ED030A09E138
:100FD000B2E035E0E6E054480068A0F580405149B1
:100FE000C860514890ED030AF7EE000A30EE600A3F
:100FF000DFED500A20EE200A10EE101A08460BF022
:1010000010F800B200F5804046498860EAE0019897
:1010100000F580404449486000EE108AB8EEC00AEE
:10102000DFED430A30EE600ADFED420A80EE201A5F
:10103000B7EE000A31EE000A084680ED040AD1E05E
:1010400039484068A0F580403649C860364890ED80
:10105000040AF7EE000A30EE600ADFED360A20EEF1
:10106000200A10EE101A08460AF0DBFF00B200F565
:1010700080402C498860B5E00198A0F580402A495D
:10108000886000EE108AB8EEC00ADFED290A70EE23
:10109000600A9FED281A80EE810AF7EE000A30EE12
:1010A000200A084680ED050A9CE000006802002046
:1010B00031353A31333A3132000000004A616E2056
:1010C0003330203230313700D86100201C610020DD
:1010D0005C600020B05F0020172001300D0A4545FC
:1010E0005772697465204F4B000000000D0A45459A
:1010F0005772697465206661696C65640000000060
:101100000D0A45455772697465204F4B2E0000004B
:101110000D0A45455772697465206661696C65649E
:101120002E00000024030020046100209B548CE367
:101130000000804600000047FE48806800F58040BF
:10114000FD49C860FB4890ED050AF7EE000A30EE55
:10115000600A5FED080A20EE200A10EE101A084619
:101160000AF05FFF00B200F58040F349886039E083
:101170004FF0FF30F149C861CC220021EF4802F066
:10118000AFFA0123CC220021EC4802F0FEF906461A
:1011900016B9AFF2940101E0AFF28C01084600F0FD
:1011A0003DFF1FE00298A0F5E061C53919D1B8F103
:1011B000000F16D1E2A000F031FF642001F03FFAE9
:1011C00072B6E648006820F48000E44908600846EA
:1011D000006820F400100860E148E249086000F06F
:1011E000AFFB00BF00BF11E0162020700020607030
:1011F0002820A070207940F0800020712822CE495C
:10120000284609F0A7F80120059000BF00BF059807
:1012100048B1207910F0800F02D0A078801D00E046
:101220000620C7F8000105980BB0BDE8F08F0FB499
:101230007FB509A80390BDF8200000900020019020
:10124000AFF28C100290BDF82000812804D0A0F5E8
:10125000006072381DD115E0039810C80390039800
:1012600040C8039000200090BF48006CA04208D006
:10127000B4F5004F03D08120009001940296BA4843
:10128000046407E00398006801900398001D039030
:1012900000E000BF00BF00200390B44800680228AF
:1012A0000ED1B34A69460020FFF7B2FC0546012D76
:1012B00006D1AF4801F011FC0021AD4804F0CDFF8C
:1012C0007FBC5DF814FB10B5A822AA499B482030CA
:1012D00009F085F8CC220021984802F001FA044672
:1012E000012C05D0A4A248F2D0418120FFF79FFF36
:1012F0000123CC220021914802F047F904462CB189
:101300009FA248F2D0418120FFF791FF10BD70B538
:1013100004469E480068052857D2DFE800F003081D
:10132000193D4C0014B90120984908604DE098A07F
:1013300000F074FE9B488149C1F8C800FFF7C3FF65
:1013400001F0A2F8984908800220904908603CE02A
:1013500034B100208D49086094A000F05FFE1AE0CF
:1013600001F092F8054690480188284601F090F86F
:10137000B0F5FA6F0FDD90A000F050FE00207B4921
:101380004860032081490860002003F0B8FC4FF456
:1013900000108C49086018E001F076F80546824894
:1013A0000188284601F074F8B0F57A6F02DD042058
:1013B0007649086009E04FF480208249086040F6D1
:1013C000B83001F03CF900F0BBFA00BF6F4800688C
:1013D00070BD2DE9F04106460D460027002E2BD1A9
:1013E000002D29D0012424E005EA040001280AD0B8
:1013F00004281BD174A000F011FE0B2140F67200EE
:10140000FFF715FF13E05848008F57498886898EEB
:10141000012901D0012100E00021084603F096FBDC
:101420005148018F72A000F0F9FD00E000BF00BF3D
:101430006400002CD8D101273846BDE8F08172B68F
:101440000AF03CFE00F054FC00F0D6FF642001F0EE
:1014500006F901F021F801F044F8002001F032FA19
:10146000012001F01AF904205649086005F048F8F7
:1014700000F088FE00F024FB03F0B8FA02F0C6F991
:1014800002F02CFB01F036FE01F076FF01F0EEFEDB
:1014900001F062FBFA2001F0D2F8202049490860EF
:1014A00003F0A2FE62B6012003F050FB57A000F04B
:1014B000B5FD60A000F0B2FD54A000F0AFFD67489C
:1014C000D0F80E1066A000F0A9FD9FED6B0B53EC59
:1014D000102B6BA000F0A2FD7048006810F4005FB4
:1014E00001D06FA000E071A0014673A000F096FD4E
:1014F00007F098FF0A2001F0A2F83C2003F0FFFB60
:10150000002008F018F81F237F220021084608F069
:1015100027F807F097FE6C4805F020FB4FF4207089
:1015200007F0BEFF012008F006F87F231A462021AD
:101530000020CBE00461002024030020905F002005
:101540000D0A456E746572696E6720626F6F746C08
:101550006F616465722E2E2E0D0A00003038024035
:10156000EFBEADDEF01F00201C610020D86100201E
:101570004C1B00205C600020454557726974650073
:101580004545566572696679000000000400002038
:101590000D0A506F776572696E6720646F776E2EE3
:1015A0002E2E0000172001300000002063616E63C2
:1015B000656C6C65640D0A00676F6F646279650D18
:1015C0000A000000180402400D0A415054206E6FBA
:1015D00074696669636174696F6E3A2064697370D7
:1015E0006C61792073657474696E67732E0D0A00DF
:1015F0000D0A4E6577206F7065726174696E6720A1
:101600006D6F6465203D2025640000000D0A2D2DBE
:101610002D2D2D2D2D2D2D2D2D2D2D2D2D2D2D2DFA
:101620002D2D2D2D2D2D2D2D2D2D2D2D2D2D2D2DEA
:10163000000000000D0A4B504131303120504F5313
:101640004954494F4E20414C49474E455220434F43
:101650004E54524F4C4C455200000000680200208E
:101660000D0A0A4669726D77617265207265763A75
:1016700009253036580000000000000000006540D9
:101680000D0A53797374656D20636C6F636B3A094F
:10169000252E3266204D487A0000000010080240D6
:1016A0006F6E207468652068756200007374616EE7
:1016B00064616C6F6E6500000D0A4D6F64653A09D8
:1016C0000925730D0A00000028D1000807F048FF23
:1016D00007F0B8FD002007F02EFFA148D0F80E203B
:1016E000A0A14FF4FA6003F029F907F0ABFD05F073
:1016F0001DF804462CB9A24A1021A2A000F08EFCCD
:1017000003E02146AAA000F089FC0023CC22194660
:10171000B04801F03AFFB0A000F080FCAD4800688E
:10172000B149B0FBF1F0452808D1AA480168AFA043
:1017300000F074FCA748006889490860A548C069A2
:10174000AD49884208D1ADA000F068FC1822A1493B
:10175000091DB44808F043FE9E48D0F8C800B249BD
:10176000884224D1B1A000F059FCA8229949203127
:10177000B94808F034FEB849086803F0C0FAB64822
:10178000816F002003F033FAB449C862B248C16FD8
:10179000012003F02CFAB1490863AF48816F0020A3
:1017A00003F0E4F9AC48C16F012003F0DFF9AA4966
:1017B000B1F84410012901D0012100E000210846C0
:1017C00003F0CCF9A6A000F029FCB8E0AD4801F088
:1017D0003DF90546902D03D1ABA003F0E3FB1BE0E0
:1017E000A848D0F80001012816D10121A54804F02D
:1017F00034FDAC4A0021A348FFF70AFA0646012E41
:1018000006D1A84801F069F90021A64804F025FD99
:1018100002209C49C1F8000101F077F900F037FF80
:1018200000285DD0A048406818B140F68100FFF75D
:10183000FEFC03F084FA894948649C480068012151
:1018400021EA102085494865486D02F04CFB834928
:1018500088650B46DA6C596C986D603302F09CFB1E
:101860007E49C865C86D02F08EFD9148006801216F
:1018700021EA900079498864896C21B17749896EA1
:1018800009B9012100E000210846FFF740FD734936
:10189000C8640A46116ED06DFFF79BFD6F4948661C
:1018A0000846406E012801D1002008666B48C06BD5
:1018B000002811DD694991F83C20C96B491E674B2E
:1018C000D96312F0040F01D0002102E062490968D7
:1018D000491C084603F013FA03F023FB5F498866AE
:1018E00004F07AFC02F06EF85B48026F816F002012
:1018F00003F0C0F980465848426FC16F012003F0E1
:10190000B9F90746B8F1020F01D0022F17D1534899
:10191000C08E032807D15148808E66490880022076
:101920004E4988860BE04D48C08E022807D1614899
:101930000088042800D100E003204849888645E754
:10194000BFF34F8F5C48006800F4E0605B490843D8
:10195000001D59490860BFF34F8F00BFFEE700002C
:101960006802002054686F726C616273204B5041B2
:101970003130310A537752657620253036580000D1
:10198000766300200D0A4F6E6557697265206461A9
:10199000746120666F756E642C2064657363726970
:1019A0007074696F6E203D2027252E2A7327000052
:1019B0000D0A4F6E6557697265206E6F74206465FD
:1019C0007465637465642C20737461747573203D51
:1019D00020256400905F00200D0A454550524F4D70
:1019E00020726561642E000040420F000D0A532FE3
:1019F0004E203D20256400009B548CE30D0A466F69
:101A0000756E642056616C69642043616C69627212
:101A10006174696F6E20506172616D657465727377
:101A20002E00000004610020172001300D0A466FCF
:101A3000756E642056616C69642055736572204F21
:101A40007065726174696E6720506172616D657452
:101A50006572732E000000005C6000201C61002095
:101A60000D0A507265737320456E74657220666F3F
:101A700072206465627567206F7074696F6E730D94
:101A80000A00000028000020496E76616C6964201D
:101A9000415054206D65737361676520666F726D88
:101AA00061742E004C1B0020D861002010080240F9
:101AB000100C0240080000200CED00E00000FA05C8
:101AC0008448006840F480208249086081481038CA
:101AD0000068814908437F49103908607F480068E1
:101AE00020F480107D4908600846006840F400102A
:101AF0000860081D006820F48060091D08607748B0
:101B00000C30006820F4401074490C310860081F44
:101B1000006820F44010091F08607048406A20F4F3
:101B2000706040F4E0616D484162006820F480001C
:101B30006A4908600846006840F400000860674889
:101B40000C30006820F4400064490C3108606348A0
:101B5000406A20F4704040F4E0416048416240F245
:101B60006D105F49088000205D4908310880091D1B
:101B700008805B48001D008840F400505849091D4A
:101B8000088057480C30008840F0C00054490C31A0
:101B900008805448806D20F001005249886500E0BB
:101BA00000BF5048806D10F0010FF9D14D48806D95
:101BB00020F060604B4988650846806D40F0006009
:101BC00088650846806D40F4886088654448001F39
:101BD00008660020C8650846806A20F00100886217
:101BE00000E000BF3F48806A10F0010FF9D13D4886
:101BF000806A20F060603B4988620846806A40F055
:101C0000006088620846806A40F4A06088623448B8
:101C1000001F0863344848630815C8623048083814
:101C2000008820F040002E49083908802C48001D0B
:101C3000008840F00C002A49091D08802948806A64
:101C400040F001002749886270472649C96AC1F5FA
:101C50008061264A1268914202D14FF6FF700FE070
:101C600022490A680968491C204B19601E49885C92
:101C700019460968B1F5806F02D100211A4611603A
:101C80007047184A926D22F00102164B9A6500E0E7
:101C900000BF144A926D12F0010FF9D1114A50663B
:101CA000D1650F4A083A128822F040020C4B083BDB
:101CB0001A804FF000620B4B9A601A46926D42F008
:101CC00001029A65704706480838008800F0400015
:101CD000704700004038024002002000000402402B
:101CE00008480040006002404C0300200C00002027
:101CF000C548006840F00100C34908604FF48020E7
:101D0000C24988610846006840F010000860084633
:101D1000006820F0200008600846806860F030000D
:101D20008860880088610846006840F040000860CC
:101D30000846006820F0800008600846806860F06F
:101D4000C0008860402088610846006840F48050E8
:101D500008600846006820F4005008600846806863
:101D600040F440508860A848006840F00200A6494E
:101D700008600420A6490860A5481838006840F0AB
:101D80001000A349183908600846006820F02000B8
:101D900008609F481038006820F030009C491039D6
:101DA00008604FF400209A49086099481838006884
:101DB00040F040009649183908600846006820F055
:101DC0008000086092481038006820F0C0009049F8
:101DD0001039086010208E4908608D481838006856
:101DE00040F480708A49183908600846006820F479
:101DF0000070086086481038006820F440708449FC
:101E0000103908604FF40010814908608048183884
:101E1000006840F480607E49183908600846006810
:101E200020F4006008607A481038006820F44060B0
:101E30007749103908607448006840F0040072491E
:101E4000086004207349086072481838006840F040
:101E500010007049183908600846006820F020001A
:101E600008606C481038006820F03000694910396B
:101E7000086008206749086066481838006840F024
:101E800040006449183908600846006820F0800066
:101E9000086060481038006820F0C0005D491039C3
:101EA000086010205B4908605A481838006840F400
:101EB00080705849183908600846006820F400709E
:101EC000086054481038006820F4407051491039B7
:101ED000086050481838006820F440604D491839AF
:101EE00008604C480C38006820F4406049490C39BF
:101EF00008604FF480004749086046481838006879
:101F000040F480504349183908600846006820F4BE
:101F1000005008603F481038006840F440503D4988
:101F20001039086080203B4908603A48183800683A
:101F300040F480403749183908600846006820F4AA
:101F40000040086033481038006840F44040314990
:101F5000103908602F481838006820F040502D498B
:101F6000183908602B480C38006820F08050294947
:101F70000C3908600846006840F0005008604FF4D3
:101F800000402449086023481838006840F0804029
:101F90002049183908600846006820F000400860B1
:101FA0001C481038006820F040401A491039086079
:101FB0001548006840F0080013490860164800689A
:101FC00020F030001449086013480C30006820F0FD
:101FD000300011490C310860704708B1402101E020
:101FE0004FF48001094A9161704708B1082101E06E
:101FF0004FF40021054A916170470748103000688E
:10200000012121EA90007047303802400000024070
:102010001804024018080240000C02400FB438B502
:1020200005A8009051480068B0F5006F02D300E0A9
:1020300000BFFDE74E4909684C4A12688818009AAB
:10204000049907F055FE0446484800682044474973
:10205000086000200090204638BC5DF814FB2DE994
:10206000F04105460E4600274248006808B942483C
:1020700005603DE0082C04D00A2C1DD00D2C20D189
:1020800019E03C480068A8B108213CA0FFF7C6FF52
:1020900020213AA0FFF7C2FF082138A0FFF7BEFFBA
:1020A00034480068401E3349086033480068401EC9
:1020B000314908601BE000BF012700202D4908605E
:1020C00015E02C480068B04210D221462BA0FFF743
:1020D000A5FF294909680C7027480068401C26495B
:1020E000086024480068401C2249086000BF00BF07
:1020F000FFF7ABFD0446A0F57F41FF39BAD16FB1C0
:1021000000201D49096808701B480068401C1A49D6
:10211000086008460068401BBDE8F0810020FBE72E
:1021200010B512480068B0B1FFF7CDFD98B10F4867
:1021300001680F480068FFF7A4FD0D4800681049CA
:10214000884202D101F5006000E00D4808490860AE
:1021500000200649086010BD10B500E000BFFFF781
:10216000B2FD0028FAD0FFF7DBFF10BD14000020FD
:1021700010000020180000201C0000202563000033
:102180004C0700209548006840F010009349086013
:1021900092481438006892490843904914390860FD
:1021A0009048006820F480208E4908600846006846
:1021B00040F4002008600846406820F40070486041
:1021C0000846C06820F44020C8600846806820F4B3
:1021D000402088600846406A20F0F00040F070011E
:1021E00080484162006820F480107E4908600846FB
:1021F000006840F4001008600846C06820F4001031
:10220000C8600846C06840F48010C8600846406A4C
:1022100020F4706040F4E06172484162C00271498C
:1022200088610846006840F08070086008460068D1
:1022300020F0007008600846806840F040708860B8
:102240000846006820F4400008600846C06820F492
:102250000000C8600846C06840F48000C86040F2D2
:10226000D920614908810020088288820846808937
:1022700040F4005088810846808A40F0C00088827F
:102280005A48006820F001005849086000E000BF8B
:102290005648006810F0010FF9D15448006820F04A
:1022A0006060524908600846006840F000600860BD
:1022B0000846006840F4886008604B48001D4B49A0
:1022C000083108600020091F086048487838006815
:1022D00020F0010045497839086000E000BF43481C
:1022E0007838006810F0010FF8D14048783800685D
:1022F00020F060603D49783908600846006840F089
:10230000006008600846006840F4A0600860364835
:10231000001D3649703908603548091D08600815E8
:102320003249743908603048008820F040002E4956
:1023300008800846808940F00C0088812B48783856
:10234000006840F001002949783908607047274942
:1023500074390968C1F58061264A1268914202D138
:102360004FF6FF700FE023490A680968491C214BAA
:1023700019601F49885C19460968B1F5806F02D160
:1023800000211A4611607047184A126822F00102B3
:10239000164B1A6000E000BF144A126812F0010FD9
:1023A000F9D1124A0C321060104A121D11600E4A07
:1023B000128822F040020C4B1A804FF000620B4B47
:1023C000AC3B1A60094A126842F00102074B1A60DE
:1023D00070470548008800F04000704744380240CC
:1023E000010040000000024000100140B8640240BB
:1023F0004C17002020000020FE48006840F4003008
:10240000FC490860A720FC49088040F2E730091D1C
:1024100008604010F8490C310860F7480838008817
:1024200040F00100F44908390880F348103800886A
:1024300040F06000F04910390880081F008840F023
:102440000100091F0880EC482838008840F001008E
:10245000E94928390880E748006840F48030E549B8
:1024600008602020E54908810846008940F00700FF
:102470000881002008854FF6FF70C8620846008872
:1024800040F0010008807047DC48406A80B2704725
:102490000246501A80B27047D648001F006840F0CC
:1024A0001000D449091F08605320D54908854FF60C
:1024B000FF704862C8620846008840F00800088043
:1024C0000846008840F00100088070474142CC482F
:1024D0004162018841F0010101800188C907FCD1F6
:1024E0007047C448001F006840F00800C149091F38
:1024F0000860C0482438006840F00800BD4924390D
:10250000086000E000BFBB482438006810F0080FE6
:10251000F8D0B8482438006820F00800B5492439BC
:1025200008600020B7490880091F0860B1481438C6
:10253000006840F00100AF4914390860B2480068F3
:1025400020F00100B04908600846006840F0020031
:1025500008600846006A20F00F00801C08624FF0F7
:10256000FF30A849091D08605720A6492039088076
:10257000A4481038008840F00100A24910390880B2
:10258000081F008840F00100091F08809D48283876
:10259000008840F001009B49283908809548001FB9
:1025A000006840F002009349091F08600020974925
:1025B0000880091F08608F481438006840F0020046
:1025C0008C49143908609248006820F00100904955
:1025D00008600846006840F0020008608C4820301F
:1025E000006820F00F00801C8949203108600846EF
:1025F000006820F0F00040F02000086041F2670021
:102600008249091D0860401080491431086008465D
:102610000068091D086047F270007C490C39088089
:10262000081D008840F48070091D08807748143820
:10263000008840F00100754914390880704730B5B2
:102640000346FFF721FF044600E000BFFFF71CFF31
:1026500005462146FFF71CFF9842F6DB30BD0246D7
:102660006C4850434FF47A73B0FBF3F1B1F1807FC3
:1026700001D3012070474FF0E020006940F00100D5
:102680004FF0E0231861184641610020F2E74FF057
:10269000E020006900F48030704710B548B95E4B07
:1026A00019685D4B283B1B685C4C23605A4B243BEC
:1026B0001A68504B1B1F1B6843F080534D4C241F5E
:1026C0002360574B1B6843F48073554C2360494B80
:1026D0002C331B6843F48033464C2C342360234650
:1026E0001B6823F48033236023461B6843F4407344
:1026F000236023461B6843F400432360CA23464CEF
:10270000241F236053232360434B1C3B1B6843F06F
:102710008003414C1C3C236000E000BF3E4B1C3B4F
:102720001B6813F0400FF8D03B4B183B1B686FF34E
:102730000E0342F20F742344374C183C23602346A7
:102740001B6823F4FE0343F4C6032360334B1B686A
:10275000314C283C2360334B241D23602E4B1C3B03
:102760001B6823F080032C4C1C3C236000E000BF5E
:10277000294B1C3B1B6813F0800FF8D1FF23264C1C
:10278000241F2360244B1C3B1B6823F02003224C96
:102790001C3C236010BD1749091F096841F0805196
:1027A000144A121F11601E49096841F480711C4AC5
:1027B000116010492C31096841F480310D4A2C32E6
:1027C00011601146096821F48031116011460968D1
:1027D00040F205121143074A2C3211601146096874
:1027E00041F40041116010B308492839098841F0CB
:1027F000010119E0443802402844014000400140F2
:1028000000100040280C0040000002402804004056
:1028100000040240406F40012828004024000020AE
:102820000070004002441300824A283A1180CA21F5
:10283000814A1160532111607F491839096841F0BC
:1028400080017D4A183A116000E000BF7A491839CA
:10285000096811F0400FF8D07749143909686FF30F
:102860000E0142F20F721144734A143A116011467C
:10287000096821F4FE0141F4803111606F49096853
:102880006D4A243A11606E49121D11606A49183967
:10289000096821F08001684A183A116000E000BF21
:1028A00065491839096811F0800FF8D1FF21624A93
:1028B000116061491839096821F020015E4A183A0F
:1028C000116070475F4901405C4A11607047CA213E
:1028D000594A11605321116057491839096841F06C
:1028E0008001554A183A116000E000BF524918397A
:1028F000096811F0400FF8D0524901404E4A243A7D
:1029000011604D491839096821F080014A4A183A86
:102910001160FF21484A1160704730B50246CA2055
:10292000454B18605320186043481C38006820F459
:102930008070414B1C3B1860181D006840F001007E
:102940001B1D186000E000BF3B481838006810F0FD
:10295000010FF8D03B48104040F00040364B083B98
:102960001860C1F30E0040F07060334B20331860E4
:1029700031481838006820F001002F4B183B1860D0
:102980001846006820F480701860181F006840F432
:1029900088501B1F1860181D006820F001001B1DC7
:1029A0001860FF20244B18602748006840F400306E
:1029B000254B186024480838006840F40030224B4A
:1029C000083B186020480C30006840F400301E4B73
:1029D0000C331860292000F01F040123A340440990
:1029E0004FF0E02505EB8404C4F8003100BF30BD92
:1029F00011481838006820F480700F4918390860B1
:102A000000E000BF0C481838006810F4807FF8D14F
:102A10000D480C30006840F400300B490C31086060
:102A20007047054B1B1D1A68034B243B18681B1D80
:102A30001968704728040040242800402400002022
:102A4000024413007F7F3F00083C014070B50446FC
:102A50000126D4F80001022801D0022070BD2FE029
:102A6000384802680068401C364B1860A554184668
:102A70000068062817D1207910F0800F01D0A078C7
:102A800000E00020801D30490860207900F07F00C0
:102A9000502806D16079012803D1084600688028B3
:102AA00001D99020DAE72748006827490968884259
:102AB00006D10020234908600120C4F80001032644
:102AC000D4F80001012806D0FFF741FC0546A0F527
:102AD0007F41FF39C4D13046C0E730B5D0F800316E
:102AE00002461A4C24681A4D2D686119184C246846
:102AF0001C44174D2C6003E012F8014B01F8014B08
:102B00001C00A3F10103F7D130BD10B510480068D7
:102B1000B0B1FFF75EFC98B10D4801680B48006842
:102B2000FFF732FC094800680A49884202D101F5E2
:102B3000807000E0074805490860002004490860EB
:102B400010BD000034010020380100202C010020BD
:102B500030010020501C0020FA48016841F00101BA
:102B60000160F948016821F080410160016841F08D
:102B700000410160416821F400414160C16821F0D9
:102B80004041C160816841F040418160416A21F06B
:102B9000704141F080514162EA481030016841F0D3
:102BA000010101605321000601853121C162052127
:102BB0004163018B41F060010183018C41F001010F
:102BC0000184818941F002018181018841F0010184
:102BD0000180DE4908684FF6FF021040DC4A40F4ED
:102BE000407010430860DB49102008700106DA4885
:102BF000016070474FF08040018A21F0020101829C
:102C0000D64900200880D649088070472DE9F04752
:102C1000D4482DED028B0068DFF84CA3C204D048E5
:102C2000CE49D24DD24CDFF84C837DD58146008809
:102C3000D14E0F463268801A00EE100A0888F8EE6E
:102C4000C08A7168401A00EE100ACC48B168B8EE2C
:102C5000C08A4088401A00EE100AB8EEC00A9FED04
:102C6000C81A94ED022A68EE810ADFEDC61A28EE32
:102C7000011A42EE210AC4ED020A94ED032A02EE83
:102C8000211A84ED031A9FEDC01AD4ED051A20EE27
:102C9000011A9FEDBE2A01EE821A84ED051AC4EDD9
:102CA000008A84ED018A84ED040A96ED030A20EE81
:102CB000C00A10EE100A09F0B4F900F30F002083E7
:102CC00094ED030AD6ED040A20EE600A10EE100A15
:102CD00009F0A7F900F30F00608394ED050AD6ED23
:102CE000050A20EE200A10EE100A09F09AF980F386
:102CF0001000E08394ED040AD6ED050A20EE200AC8
:102D000010EE100A09F08DF980F31000A08398ED01
:102D1000140AD8ED042A60EE280A98ED150A20EE70
:102D2000081A95ED0A0A00E0EBE000EEA20A9849C5
:102D300010EE100A85ED0A0ADFED961A964A9FED0D
:102D4000972A884202DDC5ED0A1A05E010EE100A46
:102D5000904201D985ED0A2A95ED0B0A01EE220A6F
:102D600010EE100A85ED0B0A884202DDC5ED0B1A44
:102D700005E010EE100A904201D985ED0B2AD5ED41
:102D80000C1A98ED060A05F1300070EEE11A20EEFB
:102D9000212AF7EE001A71EEC02AD5ED0E1A02EEC6
:102DA000A12A85ED0E2AD5ED0D1A71EE611A60EE9D
:102DB000211A95ED0F0A42EE801AC5ED0F1AC0ECEC
:102DC000020A98ED033A95ED0A0AD8ED052AD5EDE9
:102DD000023A00EE830AD5ED0B0AC5ED033A41EE47
:102DE000030A95ED101A02EE220A85ED021A95EDFE
:102DF000043A41EEA20A85ED053AD5ED112AC5ED5A
:102E0000042A85ED100A6868D0ED001A90ED012AB9
:102E100021EE800AD0ED021A01EE020A90ED031AAB
:102E200003EEA10AD0ED043A02EE810A03EE230A72
:102E300085ED110A95ED063A85ED073AD5ED124A72
:102E4000C5ED064A95ED084A85ED094AD5ED132AE8
:102E5000C5ED082AC5ED120A90ED005A65EE200A6C
:102E600044EE820A43EE210A42EE810A44EE230A2E
:102E7000C5ED130AE08E032835D0A08C2084E08CA9
:102E800060849FED470A85ED110A85ED130A85EDF3
:102E90000A0A85ED0B0A00BFB4F92000B8F9481002
:102EA000884203DBB8F94A10884200DD2184B4F976
:102EB0002200B8F94C10884203DBB8F94E10884262
:102EC00000DD61844FF08051CAF80010618C47F634
:102ED000FF70411A3980218C401AA9F80000BDEC1E
:102EE000028BBDE8F08710EE100A09F09AF800F3A3
:102EF0000F002084E86C09F094F800F30F00608460
:102F0000CAE7008808884FF48051CAF800102548A5
:102F1000816841F0804181601548164BA28E2E8851
:102F2000B0F92010B0F922000227B3F846304FF074
:102F3000030CB2424DD0012A36D0022A37D0032AE0
:102F400046D143E030380240000002400CED00E082
:102F50000000FA051CE400E000E100E00C3800404D
:102F60000C3C004014040240180402403C010020C4
:102F70001C6100205C600020046100208C010020A6
:102F8000A69BC43BC9767E3F6F12833A77BE7F3FD4
:102F900000FEFF4600FEFF4600FEFFC600FEFFC625
:102FA00000000000002001400126E68610E0012B11
:102FB00005D00E46A68405D14FF0000603E04FF081
:102FC0000006F7E70646E684E78601E0A4F836C087
:102FD0002A80464D042AAD6D0FD1A28BAA420ADA8F
:102FE000012B01D14FF00001A18401D14FF000006D
:102FF000E084E78601E0A4F836C03D49E08B896AA9
:10300000A84202DD41F0010101E021F00101A162CD
:10301000D8F860108842A16A02DA41F0020101E0AA
:1030200021F00201A162D8F85C108842A16A02DD99
:1030300041F0040101E021F00401A162D8F864101C
:103040008842A06A02DA40F0080001E020F008009F
:10305000A062B4F91800002800DA4042B4F91A104E
:10306000002900DA4942D8F86820824205D98A420C
:1030700003D9A26A42F0100202E0A26A22F0100212
:10308000A262D8F86C20824205D98A4203D9A06A8C
:1030900040F0200002E0A06A20F02000A062E16A77
:1030A00081431BD00022216B814319D05FF00004C3
:1030B000D8F87000022815D000215140002001F0FE
:1030C000C5FDD8F8740002280ED000216140BDEC87
:1030D000028B0120BDE8F04701F0B8BD0122E2E714
:1030E0000124E5E70121E8E70121EFE75C6000202A
:1030F0001C6100205A49096841F00201584A1160D8
:1031000057491031096841F48041554A1032116025
:103110005449096821F08041524A116011460968FA
:1031200041F000411160111D096821F40041121D98
:1031300011604C490C31096821F04041494A0C3278
:103140001160111F096861F04041121F116045496B
:10315000496A21F0704141F0A04242494A6209683F
:1031600021F080613F4A11601146096841F0006119
:103170001160111D096821F40051121D11603949B7
:103180000C31096821F04061364A0C321160111F80
:10319000096861F04061121F11603249496A21F4E7
:1031A000700141F4A0022F494A62096821F0805160
:1031B0002C4A11601146096841F0005111602949FB
:1031C0000C31096841F08051264A0C3211601146D9
:1031D000096821F0005111602249496A21F07061AB
:1031E00041F0A0621F494A6289141E4A18321160D8
:1031F0001C49096841F080711A4A1160114609683A
:1032000021F000711160111D096821F48051121D17
:10321000116014490C31096821F04071114A0C32D7
:103220001160111F096861F04071121F11600E4991
:10323000098821F040010C4A1180111F098821F0F2
:103240004001121F118040F6143111801146098887
:1032500041F040011180044908310888704700009E
:103260003038024000040240043800403C48006806
:1032700040F004003A4908603A48006840F0030012
:103280003849086037480C30006820F003003549A1
:103290000C3108603348006840F00C003149086088
:1032A00030480C30006820F00C002E490C310860CA
:1032B0002B481430006840F48070294914310860AC
:1032C0002948006840F440302849C1F8040340F61A
:1032D000013088604FF03F0008610846C06A20F462
:1032E0007000C8620846C06A40F48010C8624FF49B
:1032F000B57048631E48006820F001001C49086052
:1033000000E000BF1A48006810F0010FF9D118481A
:10331000006820F06060164908600846006840F4C4
:103320005060086011484C3011490831086011485C
:10333000091D086002200E49091D08600B484068FD
:1033400040F41060094948600948006840F00100F5
:103350000749086070470146064830F81100704779
:1033600030380240000802400423014000200140A0
:10337000706402408C01002030B56C48006840F059
:1033800004006A49086069481030006840F4004051
:103390006649103108606648006820F08070644912
:1033A00008600846006840F000700860081D00686A
:1033B00020F48050091D08605D480C30006820F042
:1033C00040705B490C310860081F006860F0407075
:1033D000091F08605648406A20F4702040F4C0215C
:1033E00053484162006820F4801051490860084643
:1033F000006840F400100860081D006820F4806038
:10340000091D08604A480C30006820F44010484903
:103410000C310860081F006860F44010091F086044
:103420004348406A20F4706040F4C0614048416203
:10343000006820F480003E4908600846006840F4B7
:10344000000008603A480C30006840F480003849B9
:103450000C3108600846006820F400000860344819
:10346000406A20F4704040F4C041314841622F4826
:10347000006840F001002D4908604FF400402D49DC
:1034800088610846006840F080400860084600688F
:1034900020F0004008600846406820F40040486082
:1034A0000846C06820F04040C8600846806860F068
:1034B000404088602048008820F040001E49088075
:1034C000081F008820F04000091F088040F61430D3
:1034D00008800846008840F040000880081D0088E9
:1034E00040F04000091D088033200121002807DA40
:1034F0000B071D0E114B00F00F04241F1D5503E098
:103500000B071C0E0E4B1C5400BF332000F01F0392
:103510000121994043094FF0E02404EB8303C3F8F1
:10352000001100BF04480830028830BD3038024026
:103530000008024000000240043C004018ED00E09A
:1035400000E400E02DE9F04707460D464FF0000883
:10355000FEF79AFF804600BFFEF796FF8146414680
:10356000FEF796FFA84201DD012000E0002006469C
:10357000384600F0D9F904460EB9002CECD016B14B
:103580000120BDE8F0870220FBE72DE9F05F8346CC
:103590000E46174698464FF0010A5C46F019B0F502
:1035A000005F02D30120BDE8F09F0FB90020FAE7C9
:1035B000012000F0E2F900F0CAF903219148FFF779
:1035C000C1FF022801D00220EDE7A02000F0D1F9D0
:1035D00003218D48FFF7B6FF022801D00220E2E761
:1035E000C6F3072000F0DDF903218748801CFFF7B0
:1035F000A9FF022801D00220D5E7F0B200F0D1F9EE
:1036000003218148801CFFF79DFF022801D0022082
:10361000C9E7012000F0B1F900F099F903217948D8
:10362000FFF790FF022801D00220BCE7A12000F0A4
:10363000A0F903217348401CFFF784FF022801D042
:103640000220B0E74FF000091EE003216D483F3033
:10365000FFF778FF022801D00220A4E700F0A5F9C7
:103660000546B8F1000F02D104F8015B0AE0BAF197
:10367000000F05D014F8011BA94201D1012000E080
:103680000020824609F10109781E4845DDD8002056
:1036900000F073F903215B483F30FFF753FF022826
:1036A00001D002207FE700F05BF900F07EF90546CB
:1036B000B8F1000F02D104F8015B0AE0BAF1000F83
:1036C00005D014F8011BA94201D1012000E000201F
:1036D0008246BAF1010F01D0012064E7002062E7C1
:1036E0002DE9F84F81460D461646A819B0F5005F42
:1036F00002D30220BDE8F88F0EB90120FAE7C846D0
:103700002C4674E004F01F07AC4200D087BB0120B8
:1037100000F033F900F01BF903213A48FFF712FFDC
:10372000022801D01E20E5E7A02000F022F90321A5
:103730003548FFF707FF022801D01F20DAE7C4F35E
:10374000072000F02EF903212F48801CFFF7FAFE16
:10375000022801D02020CDE7E0B200F022F90321B9
:103760002948801CFFF7EEFE022802D02120C1E785
:10377000FFE718F8010B00F014F903212248801C20
:10378000FFF7E0FE022801D02220B3E71F2F03D06D
:10379000A819401EA04229D100F0E2F8FEF774FEFD
:1037A000834600BF00F0D3F803211648FFF7CAFE96
:1037B000022801D023209DE7A02000F0DAF80221A2
:1037C0001148FFF7BFFE022800D10EE0FEF75CFEB5
:1037D00059460090FEF75CFE142801DD012000E050
:1037E00000208246BAF1000FDCD000BF641CA8198B
:1037F000A04287D8BAF1000F01D101207AE7242036
:1038000078E70000010003008200070069480068B3
:1038100040F005006749086066481030006840F4D1
:10382000000064491031086062481038006840F4B4
:1038300000006049103908600846006820F4000064
:1038400008605D48406A20F00F00001D5A49486238
:103850000846406840F4807048600846C06820F41C
:103860004030C8600846806860F440308860084690
:10387000006820F4803008600846006840F400309A
:1038800008604E48406A20F0F00040F040014B488C
:103890004162001D006840F400704849091D08603D
:1038A00046480C30006820F4402044490C31086040
:1038B000081F006860F44020091F08603F48006846
:1038C00020F480203D4908600846006840F400204C
:1038D00008603B48008820F03F0040F02A0038494B
:1038E0000880081F008820F00100091F08804FF49D
:1038F0008C703349183108802B20091D088030480E
:10390000001F008840F480602D49091F0880EE20C8
:103910002B49091D08802A48001F008840F001003B
:103920002749091F0880704710B501462448103008
:103930000388001D048843EA044020F07F4202EA25
:103940000100884201D1012010BD0020FCE71C4885
:10395000001F008840F480701949091F08807047D3
:103960001748001F008840F400701549091F08809F
:10397000704713490C3108807047012808D110495D
:10398000091F098841F480610D4A121F118007E068
:103990000B49091F098821F48061094A121F11800F
:1039A000704707490C310880704705480C30008883
:1039B000C0B27047303802400000024000080240A8
:1039C000045C004010B53E48006820B101282ED0AC
:1039D00002286DD15AE03B4800683A49496888425C
:1039E00024D9002000F04EF93748364A06CA06C0EE
:1039F000344840683549884207D101F500503149C3
:103A0000486008464068086005E030482D49486035
:103A10000846406808602C4840682D490860084600
:103A200000682C49086001202549086040E02648CC
:103A3000006827490968884221D925480068047828
:103A40002348006840882449088022480068001DF7
:103A500020490860DA2C03D10120FEF7BEFA04E009
:103A6000C02C02D10020FEF7B8FA1B480188194883
:103A7000006800F00FF902201149086005E00020FD
:103A80000F490860012000F0FDF811E000F020F976
:103A900068B1104800681049098808440D49086059
:103AA000084600680A49086001200549086000BF0F
:103AB00000BF0348006808B1012010BD0020FCE7EA
:103AC000AC01002090010020A0010020501E002029
:103AD0009C01002098010020A801002010B5844816
:103AE000006840F00100824C20608148143000687A
:103AF00040F480507E4C143420607E48006820F4EE
:103B000080407C4C20602046006840F400402060EB
:103B10002046406820F0800060602046C06820F4A5
:103B20004040E0602046806840F44040A06020466D
:103B3000006A20F0704040F0A040206220460068FB
:103B400020F4806020602046006840F4006020601F
:103B50002046406820F0200060602046C06820F4C5
:103B60004060E0602020A0612046806840F4406012
:103B7000A0602046006A20F4700040F4A00020629B
:103B80005B48006840F00100594C20601020594CFF
:103B9000A0612046006840F48070206020460068E4
:103BA00020F4007020602046406820F01000606023
:103BB0002046C06820F44070E0602046806840F4F1
:103BC0004070A0604C48808820F040004A4CA080A3
:103BD0002046008820F0400020802A24B4FA84F493
:103BE000C4F12001481E382404EAC00343F44170A4
:103BF000414C20802046808840F00200A0803C4854
:103C0000006840F480003A4C20603C48006820F096
:103C100001003A4C206000E000BF3848006810F016
:103C2000010FF9D14FF40060344C7C3C20603348E4
:103C3000006820F06060314C20602046006840F051
:103C4000C06020602046006840F48060206020460C
:103C5000006840F04000206027480C30274C0834B2
:103C600020600020241F20602348008840F040008E
:103C7000214C20802046828901208840204CB4FBC2
:103C8000F0F010BD08B1102101E04FF48011194A85
:103C900091617047194A126822F00102174B1A60AD
:103CA00000E000BF154A126812F0010FF9D1134A63
:103CB0000C321060114A121D1160D2140F4B7C3B64
:103CC0001A600E4A126842F001020C4B1A607047EB
:103CD0000A488438006810F4006F06D0064800894E
:103CE00010F0800F01D1012070470020FCE7000098
:103CF0003038024000000240003001408864024039
:103D000000BD0105002100205B4A126842F48032A8
:103D1000594B1A6000BF584A126802F40030491C1F
:103D200010B9B1F5705FF6D1534A1268C2F3404042
:103D3000002873D0504A4032126842F080524E4BF5
:103D400040331A604D4A126842F480424B4B1A606D
:103D500040F205624A4B1A60474A08321268464BE5
:103D600008331A601A46126842F400421A601A4672
:103D7000126842F4A0521A601A46126822F4F8122D
:103D800042F440221A601A46126822F060521A6009
:103D90001A46126842F000521A601A46126822F05F
:103DA00040421A601A46126842F080421A60354A50
:103DB0001B1F1A601A1F126842F080721B1F1A60C4
:103DC00000E000BF2C4A126812F0007FF9D02A4AA6
:103DD0000832126822F00302274B08331A601A4691
:103DE000126842F002021A6000E000BF224A083264
:103DF000126802F00C02082AF7D1234A1E4B8433C2
:103E00001A601D4A126842F080621B4B1A6000E083
:103E100000BF194A126812F0006FF9D0704710B550
:103E20001A48006840F47000184908601248006899
:103E300040F001001049086000200F490831086077
:103E40000D480068124908400B4908601148091DD7
:103E50000860081F006820F48020091F0860002007
:103E600005490C310860FFF74DFF4FF0006007492E
:103E70008039086010BD000000380240007000402A
:103E8000003C02400C5440070036004088ED00E042
:103E9000FFFFF6FE1030002410B502460B4600214D
:103EA00007E0FD4C04EB01142468944200D102E0C9
:103EB000491C0A29F5D900BF23B1012B07D0022BD9
:103EC0000FD109E0F44C04EB0114606809E0F24CF6
:103ED00004EB0114A06804E0EF4C04EB0114E0686B
:103EE00000BF00BF10BD70B504460025EB48006858
:103EF00006284ED2DFE800F0030E4D203A3F012C99
:103F000007D10120E54908602025FEF7BDFAE44904
:103F100008803EE0FEF7B8FA0646E14801883046E0
:103F2000FEF7B6FAC82806D9012C01D1032000E01B
:103F30000020DA4908602CE0012C0FD1FEF7A4FA2A
:103F40000646D74801883046FEF7A2FAB0F57A7FD8
:103F50000BD90420D1490860102506E00520CF497F
:103F60000860FEF791FACF49088012E014B90520E5
:103F7000CA4908600DE0FEF787FA0646C94801887D
:103F80003046FEF785FAC82802D90020C3490860E8
:103F900000BF00BF284670BD2DE9F0472DED028B14
:103FA00080460D4691461E46BF48006DBF49496890
:103FB000884205DABC48006D401CBB49086528E012
:103FC000B948006DB949496888420ED1B749886837
:103FD00000F095FEB448006D401CB3490865B44834
:103FE0000068BDEC028BBDE8F087B8F1000F06D188
:103FF000281E01DB014600E04142192909DDAB49D9
:10400000086800F07CFE0020A7490865A848006801
:10401000E7E7A8480068A6490860A648006890B18C
:10402000A448006809280ED0FEF72EFA8246A2485E
:1040300001885046FEF72CFA41F28831884202D9B5
:1040400000209C490860B9F1010F06D19948006829
:10405000092802D0092097490860192D01DD0120A7
:1040600000E0002015F1190F01DA012100E0002124
:10407000441AFEF709FA82468F4801885046FEF737
:1040800007FAB0F5FA7F00DA0024B8F1000F00D18A
:104090001CB1FEF7F9F988490880012C07D10021ED
:1040A00084480068FFF7F8FE824908603DE0601C24
:1040B00007D101217F480068FFF7EEFE7D490860C7
:1040C00033E018F0200F07D002217A480068FFF78C
:1040D000E3FE7849086028E0B8F1100F25D177A0F9
:1040E000FDF79CFF05F09EF97049086800F007FE97
:1040F000002005F020FA1F237F220021084605F04A
:104100002FFA05F09FF8714802F028FD4FF4207057
:1041100005F0C6F9012005F00EFA7F231A4620218A
:10412000002005F01DFA05F08DF862480068401F78
:10413000052836D2DFE800F00336A2E2EA0000EEFE
:10414000105AB8EEC00ADFED620A20EE208ABDEEFA
:10415000C80A10EE100A20B300EE105AB8EEC00ADA
:10416000DFED5B0A20EE200AB0EE408A4F48BDEE3C
:10417000C80A016810EE100A08444C490860084655
:104180000068002802DA0020086006E0474800685E
:10419000642802DD642045490860306840F004006E
:1041A0003060BAE0002C68D04FF4167004FB00F7C2
:1041B0003E4840686FF00041884205D1002F03DA85
:1041C00044483A4948604AE03848406838444149E0
:1041D000884204DD6FF00040344948603FE03348D6
:1041E0004068384448F6A041884211DD2F484068B5
:1041F000491090FBF1F201FB12012C48426840F299
:104200006540604302EB0010401A2849486026E0F0
:1042100026484068384441F27071884210DD2348D6
:10422000406890FBF1F201FB12012048426840F225
:104230007710604302EB0010401A1C4948600EE002
:104240001A4840683844002809DD18484068C4EB23
:10425000041101EB810100EBC100144948601348CF
:1042600040684FF4167190FBF1FA51461AA0FDF721
:10427000D5FE306840F0040030604EE05CB10A4882
:10428000008F2044084908870846008F01282DDA4E
:104290000420088731E030E0B001002058020020FF
:1042A00054020020560200201C6100205C600020A7
:1042B00064020020600200205C0200200D0A4C6FA6
:1042C0006E672070726573732E0D0A0028D1000886
:1042D000CDCC4C3D006504000D0A54696D656F75C9
:1042E00074203D202564206D696E0000FE48008F1B
:1042F000042802DD0120FC4908870EE0306840F008
:10430000010030600020F949086006E0B9F1000FB3
:1043100002D10020F549086000BF00BFF3480068E3
:10432000F349096888420BD0F049096811B9F1498D
:10433000096802E0EF490968491C084600F0DFFC03
:10434000EA4800684DE603468B4205DD934201DAF8
:10435000184670471046FCE70846FAE7F0EE401AA8
:10436000F4EEE01AF1EE10FA0ADDF4EEC11AF1EE05
:1043700010FA02D2B0EE610A7047B0EE410AFBE7D4
:10438000B0EE600AF8E72DE9F0432DED0A8B8DB011
:1043900004460A2C7ED2DFE804F005AFC0CEDFF180
:1043A000EFEE7DEDD048B0F9180000EE900AF8EE7F
:1043B000E00A9FEDD11A60EE810AB0EE600A9FED2F
:1043C000CF1ADFEDCF0AFFF7C9FFB0EE409AC6481B
:1043D000B0F91A0000EE900AF8EEE00A9FEDC61A56
:1043E00060EE810AB0EE600A9FEDC41ADFEDC40AE8
:1043F000FFF7B4FFF0EE409ABB48B0F9200000EEA2
:10440000900AF8EEE00A9FEDBC1A60EE810AB0EE69
:10441000600A9FEDBA1ADFEDBA0AFFF79FFFB0EE10
:1044200040AAB148B0F9220000EE900AF8EEE00A86
:104430009FEDB11A60EE810AB0EE600A9FEDAF1AEF
:10444000DFEDAF0AFFF78AFFF0EE408AA648C08E84
:10445000012801D14D250AE0A348C08E022801D1D0
:104460004F2504E0A048C08E032800D143251AEE52
:10447000100A07F0ABFD41EC100BB0EE40BAF0EEC5
:1044800060BA19EE100A07F0A1FD41EC100BB0EE76
:1044900040CA00E0EEE0F0EE60CA02958DED00BB90
:1044A00053EC1C2B97A19C4805F034FC18EE900AA5
:1044B00007F08CFD41EC100BB0EE40BAF0EE60BAA4
:1044C00019EE900A07F082FD41EC100BB0EE40CAE5
:1044D000F0EE60CA8448808E042801D1412000E0BB
:1044E000202002908DED00BB53EC1C2B8BA18A4841
:1044F000283005F00FFCD0E0002005F01CF88CA25D
:104500008F480168844805F005FC8EA28C4801683C
:104510008148283005F0FEFBBFE085A2884801688D
:104520007D4805F0F7FB8AA2854801687A48283063
:1045300005F0F0FBB1E0002004F0FDFF7CA2804814
:104540000168754805F0E6FB85A27D480168724860
:10455000283005F0DFFBA0E075A2794801686E48BD
:1045600005F0D8FB82A2764801686B48283005F038
:10457000D1FB92E074E043E01BE0FFE7002004F091
:10458000DAFF5C487EA1026803A805F0C3FB03AA1A
:104590006B480168604805F0BDFB7DA26848016872
:1045A0005D48283005F0B6FB5249086800F0A7FBCB
:1045B00073E0504840686FF00041884204D177A111
:1045C00003A805F0A7FB0AE04A4840684FF41671BB
:1045D00090FBF1F94A4675A103A805F09BFB03AADD
:1045E000574801684C4805F095FB69A2544801689A
:1045F0004948283005F08EFB00203B4908654CE017
:104600003948008F012806D002280BD0032810D08B
:1046100004281CD114E069A2494801683E4805F00D
:1046200079FB14E067A2464801683B4805F072FB3D
:104630000DE067A242480168374805F06BFB06E0D1
:1046400066A23F480168344805F064FB00BF00BF24
:1046500066A23B4801683048283005F05BFB1CE04F
:1046600065A12D4805F056FB67A12B48283005F0C1
:1046700051FB12E069A232480168274805F04AFB65
:1046800022466BA103A805F045FB03AA2C4801684C
:104690002148283005F03EFB00BF00BF002004F099
:1046A0004AFF0021084602F0EBFA1B4804F0B2FD75
:1046B0000121002002F0E4FA1748283004F0AAFD96
:1046C000012004F038FF04F0BDFD2F21052002F089
:1046D000E3FD2F215A2002F08AFE05212F2002F04F
:1046E000DBFD5A212F20A5E01C6100206002002084
:1046F000640200205C600020E7FB9F390AD71F415D
:104700000AD71FC15820252B312E326620252B3188
:104710002E32662025630000505E00205920252B94
:10472000312E326620252B312E3266202563000083
:104730004D656E75206F7074696F6E7300000000B8
:104740005002002055736520776865656C00000095
:104750003120436F6E74726F6C206D6F6465000062
:1047600032204272696768746E65737300000000DE
:104770003320446973702E54696D656F7574000041
:104780004272696768746E657373203D202564000A
:104790008220746F2061646A7573740054696D655A
:1047A0006F75743A206E65766572000041667465B7
:1047B00072202564206D696E000000004D6F6E69E7
:1047C000746F72004F70656E206C6F6F7000000028
:1047D000436C6F736564206C6F6F70004175746F0C
:1047E000204F70656E2F436C6F7365008220746F6D
:1047F0002073656C65637400536176696E67207021
:104800006172616D73202600706F776572696E67E3
:1048100020646F776E2E2E2E00000000556E6861AA
:104820006E646C65642073746174653A0000000006
:104830002564000002F0DBFD5A231A4605210846D4
:1048400002F066FE44231A461A21084602F060FE72
:104850005E4890ED058AB2EE040AB4EEC08AF1EE2D
:1048600010FA03D2B2EE040AB0EE408A574890ED37
:10487000020ADFED570A20EE200AC0EE080A10EE09
:10488000909A484607F0CDFB0746504890ED030A42
:10489000DFED4F0A20EE200AC0EE080A10EE909AD3
:1048A000484607F0BEFB80462A2251423846FFF7B1
:1048B0004AFD07462A2251424046FFF744FD804602
:1048C00008F12F0211B207F12F0210B200230522C6
:1048D00002F05FFC012004F0E3FD3C48C08B00EBDC
:1048E000001000EB8000060C532E00D95326022046
:1048F0000021CDE90010C6F15800C1B25A2373223D
:10490000642003F08FFE002004F0CAFD0220002185
:10491000CDE90010C6F15800C3B27222052165200E
:1049200003F080FE012004F02DFF002004F02AFF98
:1049300000200DB0BDEC0A8BBDE8F0830FB470B55C
:10494000BEB0044644A83D9015A83D9A439905F091
:10495000CFF915AA1FA115A805F0DCF929AB33AAD8
:104960001DA115A805F0A4FB33AA1F4801680BA8D8
:1049700005F0D0F929AA1C48016801A805F0CAF978
:1049800000203D9004F0D7FD04F05CFC00210846B7
:1049900002F076F90BA804F03DFC0221002002F0A1
:1049A0006FF901A804F036FCFDF76EFD054601E045
:1049B000FFF708F8FDF768FD06462946FDF768FD94
:1049C000A042F5DB3EB070BC5DF814FB1C6100201A
:1049D0000000AA4225730A00255B5E0A5D0A255B7A
:1049E0005E0A5D0A000000005002002010B50020A1
:1049F0004A4908604860C8608860322008619FEDBD
:104A0000480A484880ED030A9FED470A80ED040AF2
:104A10009FED460A80ED050AB7EE000A80ED060A12
:104A20009FED430A80ED080AB1EE040A80ED090A01
:104A300000203C4988629FED3F0A084680ED070A46
:104A40000020C86214223C493648303005F0C7FCCB
:104A50003C203449086041F2707048600220886050
:104A60008003A1F84800401EA1F84A00401CA1F8AC
:104A70004C00401EA1F84E000120A1F84400A1F80E
:104A80004600B7EE000A084680ED140AB7EE000AA9
:104A900080ED150A41F6991088654EF2656008664A
:104AA00040F24710886601200867886741F699112F
:104AB0001C48C1654EF26561416640F24711C1660E
:104AC00001214167C1673C201649086000201B494D
:104AD000886602208886C886088700208884C88463
:104AE00047F6FF7016490860486040F6CC40886081
:104AF0009FED140A084680ED030A9FED120A80ED2F
:104B0000040A9FED110A80ED050A00200B49086593
:104B100008844884C863C86510BD0000D8610020BF
:104B2000CDCCCC3D5C600020CDCC4C3E9A99993EDA
:104B30000000964300007A44CCC000081C610020AD
:104B400004610020E4388E3FCDCC8C3F08B1802139
:104B500001E04FF40001FE4A1160704708B14021A6
:104B600001E04FF48001FA4A116070470E293CD2EF
:104B7000DFE801F00708093B3B3B3B3B3B3B202187
:104B8000222300BF00BF48B9F24A126822F00C028B
:104B9000F04B1A600422EE4B1A600AE0012808D19B
:104BA000ED4A126822F00C02EB4B1A60C203E84B8C
:104BB0001A601AE000BF00BF00BF50B94FF4802256
:104BC000E34B1A60E34A126842F00402E14B1A60B8
:104BD0000AE0012808D1C207DD4B1A60DE4A1268DC
:104BE00042F00402DC4B1A6000BF00BF704702466F
:104BF00000200A2906D00B290DD00C290ED00D2932
:104C000012D10EE012B940F4804003E0012A01D134
:104C100040F4004008E040F0030005E040F01000E0
:104C200002E040F0130000BF00BF704701460020C3
:104C300029B9C84A10321268C2F3400005E00129C0
:104C400003D1C54A1269C2F34000704740B909B1A7
:104C5000022201E04FF40032BE4B18331A6008E024
:104C6000012806D109B1022201E04FF40032BA4B0B
:104C70009A6170472DE9F04781460D4617464FF07F
:104C8000000AB9F1000F03D0B9F1010F0BD103E015
:104C9000B24BB34CB34E09E0B04B1B1DB04C241DBE
:104CA000B04E361D02E00020BDE8F08700BF30683E
:104CB000A84203D06FF00100206018603560022D1B
:104CC00015D1186820604846FFF7B0FF18601868D3
:104CD0002168A0EB0108012F02D1B8F1010F04D027
:104CE000022F03D118F1010000D1AA4604E06FF0B1
:104CF00001002060186000BF00BF5046D4E710B527
:104D0000044600EE104AF8EEC00A9FED971AB6EE80
:104D1000000A00EE810A10EE101A084607F081F929
:104D20000446642C00DD6424E0B204F0EDFD002CA8
:104D300002DD04F0BCFF01E004F0B4FF10BD10B5CB
:104D400001F037FCC001192190FBF1F404F30700D6
:104D500010BD70B504460025062C7DD2DFE804F0B6
:104D6000031E446282B27B48006840F00400794927
:104D700008600846006820F0080008607B4800884A
:104D800020F4807079490880102072491831086039
:104D9000C00308600020FDF780FCBFE06D4800689C
:104DA00040F004006B4908600846006820F00800E5
:104DB00008606E48008820F488506C4908806B4871
:104DC0002038008820F00100684920390880102030
:104DD000604918310860C003086040105E4988616E
:104DE00008205B49086099E05A48006840F00400D8
:104DF000584908600846006820F00800086008204C
:104E00005449183108604004086004205249886100
:104E100008204F4908605548008840F48070534985
:104E200008807BE04B48006840F004004949086076
:104E30000846006820F0080008604C48008820F40C
:104E400080704A4908801020424918310860C00328
:104E500008600420404900E05EE0886108203C4989
:104E600008605BE04FF48020394908603848183802
:104E7000006840F01000364918390860084600689C
:104E800020F0200008603348006820F00400314919
:104E900008600846006840F0080008604FF4801081
:104EA0002C49183108600820086004202A498861CC
:104EB0000820274908602D48008840F488502B4975
:104EC00008802BE02348006840F004002149086076
:104ED0000846006820F0080008601F48006820F0BD
:104EE0000C001D490860042019490860184818384A
:104EF000006840F01000164918390860084600683C
:104F000020F0200008601020124918310860C0030A
:104F100008600F49086001E0012500BF00BF284676
:104F200070BD10B50020FEF716FA00EE100AB8EEBC
:104F3000400ADFED0F0A20EE200ADFED0E0AB4EE84
:104F4000E00AF1EE10FA2AD20B48007816E00000D1
:104F5000180802400004024000000240BC02002089
:104F6000C4020020CC020020CDCC4C3F20040040E5
:104F7000333353383333F33FD402002010F0010FA2
:104F80000DD111A0FDF74AF816A14FF4FA60FFF712
:104F9000D5FC1A48006840F001001849086017481D
:104FA000006810BD0446214615A0FDF737F82246DB
:104FB0001AA14FF6FF70FFF7C1FC03E0FDF7B0F850
:104FC000FEF700FDFAE700000D0A4C6F7373206FC7
:104FD0006620565245462F2B313556207261696C3A
:104FE0000D0A00004572726F720A565245462F2B09
:104FF000313556207261696C00000000D402002037
:105000000D0A556E7265636F76657261626C65201C
:105010006572726F723A2025730000004572726FDC
:10502000720A2531362E31367300000010B52DED91
:105030000A8B86B00446B0EE40AAF0EE608A9FED7F
:10504000660A2AEE000ADFED650A80EE201AB0EE4D
:1050500041CAB0EE4C0A06F023FEF7EE000A80EEDD
:10506000801AB0EE418AB7EE000A08EE080AB0EEE8
:10507000409A88EE280A30EE090AF0EE409A89EE4E
:10508000290AF0EE40AAB0EE000A68EE000AB0EE7F
:10509000000A00EEC80AC0EE290AB0EE60BA88EE37
:1050A000280A39EE400AC0EE290AF0EE60BACDEDCA
:1050B00001AA8DED02BACDED03AAB1EE4B0A8DED3A
:1050C000040AB1EE6B0A8DED050A142201A92046EF
:1050D00005F085F906B0BDEC0A8B10BD10B52DEDBD
:1050E000088B86B00446F0EE409A9FED3B0A29EE0D
:1050F000800ADFED3A0A80EE201AF0EE41BAB0EEF7
:105100006B0A06F0CDFDF7EE000A80EE801AB0EED5
:10511000418AB7EE000A08EE080AB0EE40AADFEDB9
:10512000300A88EE200A30EE0A0AB0EE409AB7EE56
:10513000000AC0EE090AF0EE608AB0EE000A68EEDE
:10514000000AB0EE000A00EEC80AC0EE090AF0EE4E
:1051500060AADFED230A88EE200A3AEE400AC0EE8C
:10516000090AB0EE60BACDED018AB0EE000A28EE71
:10517000800A8DED020ACDED038AB1EE6A0A8DED4B
:10518000040AB1EE4B0A8DED050A142201A920464E
:1051900005F025F906B0BDEC088B10BD10B52DED5E
:1051A000048BB0EE408A9FED0F0A28EE000ADFED77
:1051B0000B0A80EE201AB0EE419AB0EE490A06F0D2
:1051C00077FCF7EE000A30EEC00AF0EE408AB0EE4F
:1051D000680ABDEC048B10BDDB0F494000409C46C3
:1051E000F304353FDB0FC9C02DE9F0410020F7493A
:1051F000086048608860F649086048608860F54843
:10520000006840F00200F3490860F348006820F4A9
:105210008020F14908600846006840F400200860DA
:10522000081D006820F40070091D0860EA480C3071
:10523000006820F44020E8490C310860081F00682D
:1052400040F44020091F0860E348406A20F0F00065
:1052500040F09001E0484162006820F48030DE496F
:1052600008600846006840F400300860DA480C30F6
:10527000006820F44030D8490C310860D648406AB4
:1052800020F00F0040F00901D3484162D1481030AE
:10529000006840F00070CF4910310860CD481038E8
:1052A000006840F00070CB491039086000E000BF92
:1052B000C8481038006810F0007FF8D0C548103892
:1052C000006820F00070C349103908600120C3490C
:1052D00008600320C149143108602A241520B4FB5A
:1052E000F0F8B4FBF0F100FB114010B10120BDE873
:1052F000F0810E25681CC0F11506771E0FB901203C
:10530000F5E7B6481C300068B5490840B3491C3180
:105310000860781E4FF0407101EA0060711E4FF482
:10532000E00202EA01510843691E4FF4702202EACA
:1053300001410843A8F10101C1F309010843A7494C
:105340001C3109680843A5491C310860132000F08E
:1053500051FA142000F04EFA0020C8E79F491C3192
:10536000096821F040419D4A1C32116011460968CC
:1053700000F040421143994A1C321160704797482F
:10538000006820F001009549086000E000BF9348E4
:10539000006810F0010FF9D100E000BF8F4808301D
:1053A000006810F0806FF8D0704730B502460B46A9
:1053B00000218C4800880D2801DD012030BD0BB98B
:1053C000012000E0002018B1002040EA425001E036
:1053D000D000001D01438448006840F00100824C69
:1053E000206081481C3000687E4C25780124AC4048
:1053F000A0437D4C1C3420607B480C300068794C05
:1054000025780124AC402043774C0C34206076484A
:10541000001D0068734C25780124AC402043724C79
:10542000241D2060704840306E4C248840F83410B1
:105430006C4C248800EBC40041606B481430006859
:10544000684C25780124AC40A043674C143420609C
:1054500065481C300068634C25780124AC4020432B
:10546000614C1C3420606048006820F001005E4CF4
:1054700020605C480088401C5A4C208000209DE73A
:1054800010B502460B4600210BB9012000E00020B8
:1054900018B1002040EA425001E0D000001D014355
:1054A0005148006840F001004F4C20604E481C30CD
:1054B000006820F001004C4C1C3420604A480C303D
:1054C000006840F00100484C0C3420604648001D44
:1054D000006840F00100444C241D206042484030E8
:1054E000016000F1040001604048006820F0010004
:1054F0003E4C20603E48006840F001003C4C20607B
:105500003948006820F00100374C20604FF000005F
:1055100010BD32490C31096811F0030F48D02B49F6
:105520004A684968491C294B596003F10C0101EB99
:1055300002102D495039096811F0040F0AD10021D9
:10554000417329495039096840F2FF7202EA51510A
:10555000016008E001214173234950390968254A57
:1055600002EAD1010160204950390968C1F34001C4
:1055700081732149096801F00F0101731F4909680E
:1055800041601F490A68826010494968082902D1B0
:1055900000210E4A51600D490968491C0B4A1160EF
:1055A0000E490C31096841F020010C4A0C3211609F
:1055B00070470A491431096821F00201074A143280
:1055C000116002490968E9B9002031E0EC6100206E
:1055D000786200203038024000040240006400403D
:1055E00000FC80FCDC0200200066004014660040E5
:1055F0001C660040FFFF0300B4650040B865004032
:10560000BC65004081498A688968491C7F4B996064
:1056100003F10C0101EB02100C398968082902D151
:1056200000211A46916079490968491E774A11603C
:105630007749096841F00201754A11607047744961
:105640000C39096811F0010F5BD07149096821F02C
:1056500001016F4A11606F490968002951D06D49F5
:105660008A688968491C6B4B996003F10C0101EB56
:1056700002100021684A116011460A68417B21B975
:105680000188002343EA415102E00168C900091D75
:105690000A4361490A600968827B0AB9002200E076
:1056A000022211435C4A11605C4942680A6001F1C0
:1056B000040182680A605A49096821F00F025849BA
:1056C0000A600968027B02F00F0241EA0201544AB3
:1056D00011604F49096841F001014D4A11604E497E
:1056E000096841F001014C4A11604A49896808295A
:1056F00002D10021474A916046490968491E454A3E
:105700001160704770B50146414A126822F00102EB
:105710003F4B1A603F4A1268082A01D3012019E062
:105720003C4A53685268521C3A4C626004F10C02C5
:1057300002EB031391E8740074C3364A5268082AD6
:1057400002D10022334B5A60324A1268521C314B4C
:105750001A6000202E4A126842F001022C4B1A6097
:10576000304A1268012A08D12B4A126842F001021D
:10577000294B1A6000222B4B1A6070BD2448006828
:1057800020F001002249086000BF21480C38006861
:1057900040F080001E490C3908600846006810F08F
:1057A000800FF2D10846006820F001000860184818
:1057B000001D00681C4908401549091D08600020AB
:1057C0001449086048608860012016490860132069
:1057D00001218140154A430942F8231000BF0C48BB
:1057E000006840F001000A49086070470848001D41
:1057F0000068704700F01F020121914042094FF0FC
:10580000E02303EB8202C2F800117047EC61002034
:105810001464004078620020806500408865004084
:1058200084650040D80200208CFF00FF80E200E089
:105830007CB5FB480078C0F3400090B1F94805689A
:10584000F84828380468001D0668019400950198FE
:1058500000F07F03C0F30622C0F30541F2A0FCF77D
:10586000DDFBEF480078C0F3800020B1F748416CC1
:10587000F7A0FCF7D3FB7CBD10B5FCF705FE044692
:10588000F74801882046FCF703FEB0F5FA7F10D9EF
:10589000FCF7FAFDF2490880F248006808B90120D7
:1058A00000E00020EF4908600846006808B1FFF7F3
:1058B000BFFF10BD2DE9F0432DED048B9FB0804656
:1058C00000201C901D901E9013271CAAE6A14046A4
:1058D00004F0EEFB00240AE0E44800EB0410416809
:1058E0001CA804F0AFFD08B9274602E0641C132C85
:1058F000F2DD00BF132F6ED2DFE807F00A5978956A
:10590000C9E0F3F1F0EFEEEDECEBEAE9E8E7E600F1
:1059100019AAD7A1404604F0CBFBD7A119A804F0DF
:1059200091FD38B9BE48006820F00100401CBC4918
:1059300008603BE0D1A119A804F084FD38B9B8484B
:10594000006820F00200801CB54908602EE0CCA160
:1059500019A804F077FD38B9B148006820F00400B8
:10596000001DAF49086021E0C6A119A804F06AFD36
:1059700038B9AB48006820F008000830A849086032
:1059800014E0A748006820F00100A5490860084617
:10599000006820F0020008600846006820F004005B
:1059A00008600846006820F008000860F9E318AABB
:1059B000B5A1404604F07CFB9949189848601898B6
:1059C00020B1012806D002280ED109E0B0A0FCF7D2
:1059D00025FB09E000E098E3B3A0FCF71FFB03E020
:1059E000BFA0FCF71BFB00BF00BFDAE318AAA6A10B
:1059F000404604F05DFB8A4918988860189820B1E9
:105A0000012806D002280CD107E0BCA0FCF706FB59
:105A100007E0C0A0FCF702FB03E0CCA0FCF7FEFA15
:105A200000BF00BFBDE30020FDF795FC00EE100AAB
:105A3000B8EE400ADFEDCC0A20EE200A10EE109AF4
:105A4000484606F0C3FA41EC100BB0EE408AF0EE87
:105A5000608A0120FDF77FFC00EE100AB8EE400AD4
:105A6000DFEDC10A20EE200A10EE109A484606F03B
:105A7000ADFA41EC100BB0EE409AF0EE609A8DED6D
:105A8000008B53EC192BB9A0FCF7C8FA89E318AACC
:105A90007DA1404604F00CFB189909B1012100E0FA
:105AA00000210846FCF7A1FA189808B1BAA000E056
:105AB000BAA00146BAA0FCF7B1FA72E3FFF75FFCA7
:105AC000BEA0FCF7ABFA6CE31EE310E3E9E2CCE224
:105AD000B8E217E2EFE17EE064E05DE046E032E04C
